:1000000000800020BD010000611B0000611B00009A
:10001000611B0000611B0000611B000071110000EA
:10002000711100007111000071110000E14D00001C
:10003000611B000071110000A14F00006D1B00004A
:10004000611B0000611B0000611B0000611B0000C0
:10005000611B0000611B0000611B0000611B0000B0
:10006000611B0000611B0000611B0000611B0000A0
:10007000611B0000611B0000611B0000611B000090
:10008000611B0000611B0000611B0000611B000080
:10009000611B0000611B0000611B0000611B000070
:1000A000611B0000611B0000611B0000611B000060
:1000B000611B0000611B0000611B0000611B000050
:1000C000611B0000611B0000611B0000611B000040
:1000D000611B0000611B0000611B0000611B000030
:1000E000611B0000611B0000611B0000611B000020
:1000F000611B0000611B0000611B0000611B000010
:10010000611B0000611B0000611B0000611B0000FF
:10011000611B0000611B0000611B0000611B0000EF
:10012000611B000071060000611B0000611B0000E4
:10013000611B0000611B0000611B0000611B0000CF
:10014000611B0000611B0000611B0000611B0000BF
:10015000611B0000611B0000611B0000611B0000AF
:10016000611B000061610000611B0000611B000059
:10017000611B0000611B0000611B0000611B00008F
:10018000611B0000611B0000611B0000611B00007F
:10019000611B0000611B0000611B0000611B00006F
:1001A000611B0000611B0000611B0000611B00005F
:1001B000611B0000611B0000218F000080B584B02E
:1001C00000AF694BFB60694BBB60694B4CF220523E
:1001D0001A80674B4DF628121A80664B10221A803F
:1001E00001F0DAFC644B4FF010621A60634B644A12
:1001F0001A60644B644A1A60644B1B6803F4807392
:10020000002B06D1624B00221A60604B4FF4A852BB
:100210001A60604B1B78DBB203F00803002B08D098
:100220005C4B5C4A1278D2B242F00802D2B21A7029
:1002300008E007E0BB681A1DBA60FA68111DF96092
:1002400012681A60BA68544B9A42F3D3534BBB609E
:1002500004E0BB681A1DBA6000221A60BA68504BED
:100260009A42F6D300237B600AE04E4B7A6853F83B
:1002700022104D4B7A6843F822107B6801337B6073
:100280007B686E2BF1D900237B6009E07B6803F16A
:10029000604303F5644380221A707B6801337B60FE
:1002A0007B685E2BF2D9414B3F4A1A60404B0A22D1
:1002B0001A70404B24221A703F4BA0221A7000BFC4
:1002C0003E4B1B78DBB203F00203002BF8D000BFDB
:1002D0003A4B1B78DBB203F01003002BF8D100BFC0
:1002E000364B1B78DBB203F00C03082BF8D1344BF0
:1002F00003221A70334B40221A7000BF2F4B1B7819
:10030000DBB203F02003002BF8D000BF2B4B1B788F
:10031000DBB203F04003002BF8D02B4B2B4A1A60C2
:10032000254B20221A7000BF244B1B78DBB203F050
:100330000C030C2BF8D1264B02221A60254B264ABF
:100340001A6062B606F0C4FF114B1B6803F001038C
:10035000002B02D0214806F04FFF11F07BFB01F08B
:100360001BFC01F0D7FCFEE7D49401006097FF1F4F
:100370000E200540002005403080044038800440B5
:10038000823F04003C8004400100002B10D0034059
:1003900014D0034002D007409CA0FF1FA0A0FF1F65
:1003A00064250020000000000090FF1F08ED00E021
:1003B000005006400140064000400640064006400E
:1003C000044006400540064044800440000003010C
:1003D0004880044004800440C010050000DD6850DF
:1003E000FFFFFFFFFFFFFFFFFFFFFFFFFFFFFFFF1D
:1003F000FFFFFFFFFFFFFFFFFFFFFFFFFFFFFFFF0D
:10040000FFFFFFFFFFFFFFFFFFFFFFFFFEFFFFFFFD
:1004100010B5054C237833B9044B13B10448AFF33E
:1004200000800123237010BDA0A0FF1F000000006A
:100430001490010008B5064B1BB106480649AFF3FE
:1004400000800648036813B1054B03B1984708BD07
:100450000000000014900100A4A0FF1F9CA0FF1F3B
:100460000000000080B483B000AF314B80221A60DE
:1004700000BF2F4B1B6803F08003002B0CBF002331
:100480000123DBB2002BF4D12A4B1B689AB22A4B12
:100490001B689BB213449AB2284B1B689BB213444F
:1004A0009AB2274B1B689BB213449AB2254B1B6828
:1004B0009BB213449AB2244B1B689BB21344FB803B
:1004C000FB885B089BB26FEA43436FEA5343FB80B0
:1004D0001E4BFA881A601E4B1B689AB21D4B1B6894
:1004E0009BB213449AB21C4B1B689BB213449AB242
:1004F0001A4B1B689BB213449AB2194B1B689BB2F0
:1005000013449AB2174B1B689BB21344FB80FB88C1
:100510005B089BB26FEA43436FEA5343FB80124B85
:10052000FA881A600C37BD465DF8047B704700BF3F
:1005300024B0034038B003403CB0034040B0034017
:1005400044B0034048B003404CB003402CB00340DB
:1005500058B003405CB0034060B0034064B0034057
:1005600068B003406CB0034030B0034080B483B047
:1005700000AF0346FB71FB7903F00103002B03D0AE
:10058000114B02221A6002E0104B02221A60FB7922
:1005900003F00203002B03D00D4B40221A6002E04F
:1005A0000C4B40221A60FB7903F00403002B03D0AC
:1005B000074B20221A6002E0064B20221A600C37FB
:1005C000BD465DF8047B704784F00F4088F00F4013
:1005D000C4F00F40C8F00F4080B500AF194B4FF486
:1005E000A2721A60184B184A126842F020021A6070
:1005F000164B4FF4A2721A60134B134A126842F062
:1006000040021A60124B4FF4A2721A60114B114A49
:10061000126842F002021A600F4B7D221A600F4BE3
:1006200010221A600E4B00221A600E4B04221A6030
:10063000FFF718FF0C4B48221A600C4B4FF000726A
:100640001A6080BD14C00440D4F00F4018C00440AC
:1006500004B0044094F00F4008B003400CB00340D5
:1006600020B0034024B0034000B0034004E100E0A8
:1006700080B582B000AF00F09BFC03467B60314B3D
:100680001B88072B42D801A252F823F0DD06000098
:10069000E9060000F506000001070000B9060000A9
:1006A000AD060000C5060000D1060000264B1B6801
:1006B0009AB27B685A802AE0234B1B689AB27B6807
:1006C0009A8024E0204B1B689AB27B68DA801EE097
:1006D0001D4B1B689AB27B681A8118E01A4B1B6885
:1006E0009AB27B685A8112E0174B1B689AB27B68FA
:1006F0009A810CE0144B1B689AB27B68DA8106E0A1
:10070000114B1B689AB27B681A8200E000BF0D4B48
:100710001B885A1C0D4B1340002B03DA013B63F07E
:10072000070301339AB2074B1A80064B1B88DBB2D2
:100730001846FFF71BFF064B48221A600837BD46D4
:1007400080BD00BFBCA0FF1F10B0034007000080A9
:1007500000B003402DE9F04790B00CAF786000F096
:1007600027FC0346FB60FB685B889A46FB689B8816
:100770009946FB68DB889846FB681B899C46FB68AA
:100780005B899E46FB681B7DC3F30003DBB21E46FC
:10079000FB689B891D46FB681B7DC3F34003DBB2EE
:1007A0001C46FB68DB891846FB681B7DC3F380038E
:1007B000DBB21946FB681B8A1A46FB681B7DC3F334
:1007C000C003DBB2CDF800A0CDF80490CDF80880CE
:1007D000CDF80CC0CDF810E005960695079408906A
:1007E00009910A920B93042004498A22044B00F0D9
:1007F00011FC642002F05CFBB1E700BF087501004A
:100800001875010080B584B000AF786000F0D0FBAF
:100810000346FB60FB685B89DB10A3F58053B3F5EF
:100820007A7F08DDFA68137D43F001031375414BAD
:1008300000221A7011E03F4B1B785A1CD1B23D4A7E
:100840001170042B94BF00230123DBB2002B04D0D2
:10085000FA68137D6FF300031375FB689B89DB1047
:10086000A3F58053B3F57A7F08DDFA68137D43F072
:10087000020313752F4B00225A7011E02D4B5B7849
:100880005A1CD1B22B4A5170042B94BF0023012370
:10089000DBB2002B04D0FA68137D6FF341031375AC
:1008A000FB68DB89DB10A3F58053B3F57A7F08DDA5
:1008B000FA68137D43F0040313751E4B00229A70EF
:1008C00011E01C4B9B785A1CD1B21A4A9170042B30
:1008D00094BF00230123DBB2002B04D0FA68137D00
:1008E0006FF382031375FB681B8ADB10A3F580533B
:1008F000B3F57A7F08DDFA68137D43F008031375BA
:100900000C4B0022DA7011E00A4BDB785A1CD1B292
:10091000084AD170042B94BF00230123DBB2002BC3
:1009200004D0FA68137D6FF3C3031375022002F03D
:10093000BFFA6BE7C8A0FF1F80B584B004AFFFF714
:100940004BFE1E4B1B68002B02D06FF0010332E000
:1009500002230093194B0193002302930023039376
:1009600017481849B422002302F00EF90346012B60
:100970000CBF00230123DBB2002B02D04FF0FF336A
:1009800019E0022300930D4B0193002302930023EF
:1009900003930D480D495A22002302F0F5F803464F
:1009A000012B0CBF00230123DBB2002B02D04FF040
:1009B000FF3300E000231846BD4680BDC0A0FF1FE6
:1009C0005507000054750100050800005875010026
:1009D00080B400AF1F4B4FF4A2721A601E4B1E4A28
:1009E000126842F020021A601C4B4FF4A2721A6087
:1009F000194B194A126842F010021A60184B4FF452
:100A0000A2721A60144B144A126842F008021A606B
:100A1000144B4FF4A2721A60134B134A126842F03F
:100A200008021A60114B4FF4A2721A600E4B0E4A64
:100A3000126842F004021A600D4B4FF4A2721A6061
:100A4000094B094A126842F010021A60BD465DF86F
:100A5000047B704714B0044094F00F4010B0044081
:100A60000CB004400CC00440D4F00F4008C0044057
:100A700010C0044080B582B000AF7860574B1B684F
:100A800003F08003002B19D1554B5B78DBB25B0878
:100A900003F00F03DBB20133032B0CDC504B5B780C
:100AA000DBB25B0803F00F03DBB20133DBB203F010
:100AB0000F03DBB200E00323194618E0484B5B78D4
:100AC000DBB25B0803F00F03DBB2013B002B0CDB56
:100AD000434B5B78DBB25B0803F00F03DBB2013BF7
:100AE000DBB203F00F03DBB200E0002319463C4AFF
:100AF000138861F34C231380394B5B78DBB25B08BE
:100B000003F00F03DBB2002B14BF00230123DBB281
:100B1000002B05D0324A13886FF30823138018E0A6
:100B20002F4B5B78DBB25B0803F00F03DBB2022BC9
:100B3000D4BF00230123DBB2002B0AD0284A13883C
:100B400043F480731380264A1388032161F34C23F6
:100B50001380234B1B78DBB29B09DBB25B00DAB25C
:100B60001F4B5B7803F00103DBB2DBB21343DBB254
:100B7000DBB203F00303DAB2194B9201197801F0EA
:100B80003F010A431A70174B1B68002B16D0144BF9
:100B90001B78DBB29B09DBB2012B0DD0104B1B780D
:100BA000DBB29B09DBB2032B06D00D4B1B78DBB20B
:100BB0009B09DBB2022B01D1012300E00023002BB3
:100BC00008D0084B1B68064A1278D2B29209D2B2FA
:100BD000104698470837BD4680BD00BF90F00F40D3
:100BE000D4A0FF1FF0A0FF1F80B582B000AF7860D7
:100BF000404B1B780133DAB23E4B1A703E4B5A7DA4
:100C00003C4B1B781340DBB2002B0BD03A4B1B78CC
:100C1000C3F30003DBB283F00103DBB2002019460B
:100C200000F0EAF8344B9A7D324B1B781340DBB26C
:100C3000002B0BD0304B1B78C3F34003DBB283F0A7
:100C40000103DBB20120194600F0D6F82A4BDA7D09
:100C5000284B1B781340DBB2002B0BD0264B1B78A4
:100C6000C3F38003DBB283F00103DBB20220194639
:100C700000F0C2F8204B1A7E1E4B1B781340DBB2EB
:100C8000002B0BD01C4B1B78C3F3C003DBB283F0EB
:100C90000103DBB20320194600F0AEF8164B5A7E72
:100CA000144B1B781340DBB2002B0BD0124B1B787C
:100CB000C3F30013DBB283F00103DBB20420194657
:100CC00000F09AF80C4B9A7E0A4B1B781340DBB26B
:100CD000002B0BD0084B1B78C3F34013DBB283F01F
:100CE0000103DBB20520194600F086F80837BD463F
:100CF00080BD00BFF4A0FF1FD4A0FF1F80B400AFD1
:100D0000104B40F213121A600F4B0F4A126822F078
:100D100080021A600D4B40F213121A600A4B0A4A05
:100D2000126822F040021A60094B40F213121A6056
:100D3000084B084A126822F002021A60BD465DF8AC
:100D4000047B70471CB0044094F00F4018B004407E
:100D500004C00440D4F00F4090B583B002AFFFF759
:100D600037FEFFF7CBFF1D4B10225A751C4B00932B
:100D70001C481E210122002303F0E2FC03461A4610
:100D8000194B1A60194B0093194864210122002362
:100D900003F0D6FC03461A46164B1A60124B1C6829
:100DA00002F0CCFB034600220092204601211A46A5
:100DB000002303F0FBFC0F4B1C6802F0BFFB034653
:100DC00000220092204601211A46002303F0EEFC87
:100DD000002318460437BD4690BD00BFD4A0FF1FB6
:100DE000750A000060750100CCA0FF1FE90B000030
:100DF00068750100D0A0FF1F80B483B000AF024629
:100E00000B46FA71BB71FB79052B00F2878001A2BA
:100E100052F823F02D0E0000550E00007D0E00004C
:100E2000A50E0000CD0E0000F50E0000BB7903F00A
:100E30000103D9B23C4A137861F300031370BB7904
:100E4000002B03D0394B10221A6067E0384B102278
:100E50001A6063E0BB7903F00103D9B2324A137818
:100E600061F341031370BB79002B03D02F4B082291
:100E70001A6053E02E4B08221A604FE0BB7903F052
:100E80000103D9B2284A137861F382031370BB7946
:100E9000002B03D0274B08221A603FE0264B082284
:100EA0001A603BE0BB7903F00103D9B21E4A137804
:100EB00061F3C3031370BB79002B03D01D4B0422D5
:100EC0001A602BE01C4B04221A6027E0BB7903F068
:100ED0000103D9B2144A137861F304131370BB7978
:100EE000002B03D0134B10221A6017E0124B102274
:100EF0001A6013E0BB7903F00103D9B20A4A1378F0
:100F000061F345131370BB79002B03D0074B2022EC
:100F10001A6002E0064B20221A6000BF0C37BD4663
:100F20005DF8047B704700BFD4A0FF1F84F00F4022
:100F300088F00F40C4F00F40C8F00F4080B483B079
:100F400000AF02460B46FA71BB71FB79052B27D81F
:100F500001A252F823F000BF710F0000790F0000CA
:100F6000810F0000890F0000910F0000990F000011
:100F70000E4BBA795A7513E00C4BBA799A750FE09B
:100F80000A4BBA79DA750BE0084BBA791A7607E0A2
:100F9000064BBA795A7603E0044BBA799A7600BFC9
:100FA0000C37BD465DF8047B704700BFD4A0FF1F1F
:100FB00080B400AF024B1846BD465DF8047B704715
:100FC000D4A0FF1F80B483B000AF7860034B7A6871
:100FD0001A600C37BD465DF8047B7047F0A0FF1F18
:100FE00080B500AF0A4B1B68002B0DD1012000F02B
:100FF00039FF03461A46064B1A60054B1B68002B47
:1010000002D14FF0FF3300E00023184680BD00BF3F
:1010100038A1FF1F08B480B589B002AF0346B9609C
:101020007A60FB734A4B1B78DBB2002B14BF0023A2
:101030000123DBB2002B00D083E005F087FD0346DF
:10104000002B14BF00230123DBB2002B00D078E07B
:10105000404B1B68184600210A22002301F054F976
:101060000346002B14BF00230123DBB2002B00D06A
:1010700067E0394B10221A60384B1B683848402112
:10108000384A11F0F5FB03467B617B693448194609
:1010900005F0B6FCFB7B042B20D801A252F823F00C
:1010A000B5100000BD100000C5100000CD100000FC
:1010B000D5100000462005F093FC12E0452005F015
:1010C0008FFC0EE0572005F08BFC0AE0492005F06C
:1010D00087FC06E0442005F083FC02E03F2005F099
:1010E0007FFC202005F07CFC07F128033B611C48B5
:1010F00040217A6A3B6913F071FE03467B617B698C
:101100001748194605F07CFC7B6800931448402181
:10111000154ABB6811F0ACFB03467B617B69104844
:10112000194605F06DFC0A2005F05AFC094B1B68B6
:10113000184600210022002300F058FF0B4B10221C
:101140001A601C37BD46BDE8804001B0704700BF43
:10115000351C002038A1FF1FC4F00F40E41C002004
:10116000F8A0FF1F7475010080750100C8F00F40E2
:1011700080B584B002AF00233B601EF0040F0CBFAB
:10118000EFF30883EFF309833B60374BFF221A70BC
:10119000364BFF221A70364BFF221A70354B1B78E4
:1011A000002B14BF00230123DBB21A46314B1A7007
:1011B000304B1B78002B0CBF00230123DBB2052032
:1011C0001946FFF719FE2B4B1B78002B0CBF002391
:1011D0000123DBB200201946FFF70EFE254B1B78DA
:1011E000002B0CBF00230123DBB201201946FFF7BF
:1011F00003FE204B1B78002B0CBF00230123DBB226
:1012000002201946FFF7F8FD1A4B1B78002B0CBF84
:1012100000230123DBB203201946FFF7EDFD154B38
:101220001B78002B0CBF00230123DBB204201946DE
:10123000FFF7E2FD3B6818331A683B6814331B68FC
:101240000092019300200C493E220C4BFFF7E2FE76
:1012500000237B6002E07B6801337B607A68084B87
:101260009A42F8DD9AE700BF19ED00E020ED00E0BA
:1012700018ED00E0A0A1FF1FA8750100B8750100DE
:101280003F420F0080B582B000AF78600C4B1B6806
:10129000002B14BF00230123DBB21A46084B1A604F
:1012A000074B1B68002B0CBF00230123DBB205207A
:1012B0001946FFF7A1FD4FF4FA7001F0F9FDE5E7DB
:1012C000A4A1FF1F80B582B000AF0346FB71FB797C
:1012D000012B0FD1094B1B7883F00103DAB2074BC6
:1012E0001A70064B1B7802201946FFF785FD04484B
:1012F00000F0B2FA0837BD4680BD00BFA8A1FF1FAD
:101300005CA1FF1F80B586B002AF7860FFF750FE8A
:101310000346FB60FB685B88DB089BB218460EF057
:10132000B1FF0346BB604C4B1B681846B9680EF012
:10133000F3FE034623F00043184648490FF0B2F984
:101340000346002B11D0FB685B88DB089BB200933F
:10135000042043496A22434BFFF75CFE4248B968C8
:1013600000F016FA3C4BBA681A60FB681B7DC3F3A9
:101370000003DBB2002B0BD0FB685B89DB089BB260
:1013800018460EF07FFF03463748194600F000FA72
:10139000FB681B7DC3F34003DBB2002B07D1FB6866
:1013A0009B885B089BB23048194600F043FAFB6803
:1013B0001B7DC3F38003DBB2002B19D0FB68DB89F4
:1013C00018460EF00DFB02460B461046194620A3A8
:1013D000D3E900230EF094FC02460B461046194652
:1013E0000EF046FE03462048194600F001FA18E0C8
:1013F000FB68DB8818460EF0F3FA02460B461046EF
:10140000194613A3D3E900230EF07AFC02460B46DB
:10141000104619460EF02CFE03461348194600F0FC
:10142000E7F9FB681B7DC3F3C003DBB2002B07D0D9
:1014300004200121FFF7E0FC0B4800F00DFA03E067
:1014400004200021FFF7D8FC1037BD4680BD00BF47
:10145000000000000099B940ACA1FF1F0000C84285
:10146000A8750100D07501005CA1FF1F90B585B083
:1014700004AFFFF7B5FDFFF76FFC20480C2107F024
:1014800041FB1F481F4900F083F91F48FFF79AFDF1
:101490001E4B1E4A126842F4E0221A600223009397
:1014A0000023019300230293002303931848194952
:1014B0005A22002301F068FBFFF73EFA164B009317
:1014C000164801210122002303F03AF903461A4687
:1014D000134B1A60124B1C6802F030F803460022CE
:1014E0000092204601211A46002303F05FF901F023
:1014F00049FF002318460437BD4690BD0082FF1FF8
:101500005CA1FF1F00800844C512000024ED00E02C
:1015100085120000E075010005130000E47501006C
:101520003CA1FF1F80B582B000AF786039607B6856
:10153000012B0FD13A684FF6FF739A420AD1074840
:1015400000F08CF8064800F0FBF806480449034A0E
:1015500000F012F80837BD4680BD00BF40A1FF1F54
:101560005CA1FF1F90A1FF1F80B500AF01204FF6C7
:10157000FF71FFF7D7FF80BD80B584B000AFF86082
:10158000B9607A60FB68BA681A60FB687A685A606A
:10159000FB6800221A72FB6800225A72FB68002264
:1015A000DA60F86807F05AFCFB6818461037BD4649
:1015B00080BD00BF80B487B000AFF8600B467A6092
:1015C000FB72FB68234A1A60FB68FA7A5A72FB685E
:1015D0007A681A61FB6800221A72FB680022DA60DE
:1015E00000237B6109E0FB681A697B699B00134457
:1015F00000221A607B6901337B61FB685B7A1A46C3
:101600007B699A42EFDC144B1B68002B03D1124B11
:10161000FA681A600DE0104B1B683B6102E03B6901
:101620005B693B613B695B69002BF8D13B69FA68F8
:101630005A61FB6800225A61FB6800229A80FB68AD
:101640000022DA80FB6818461C37BD465DF8047B33
:10165000704700BF18760100141D002080B582B0CD
:1016600000AF78607A687B681833104601211A460B
:10167000FFF7A0FF7B68054A1A60786803F006FD53
:101680007B6818460837BD4680BD00BF587601000C
:1016900080B483B000AF78607B6800221A607B68FA
:1016A00000225A607B684FF480429A607B6818463B
:1016B0000C37BD465DF8047B704700BF80B483B033
:1016C00000AF78607B684FF07E521A607B684FF005
:1016D0007E525A607B6818460C37BD465DF8047B25
:1016E000704700BF80B582B000AF78600B467B804A
:1016F0007B8818460EF074F902460B464FF0000046
:1017000007490EF0FDFA02460B46104619460EF048
:10171000AFFC02467B685A600837BD4680BD00BFFB
:101720000000F0BF80B483B000AF78607B684FF0FA
:101730007E521A600C37BD465DF8047B704700BFCF
:1017400080B582B000AF78607B6818460021002227
:10175000FFF730FF7B680C4A1A607B681833184625
:10176000FFF796FF7B682C331846FFF7A7FF7B68CF
:101770002C33184642F21071FFF7B4FF7B6818460D
:101780000837BD4680BD00BFA0760100FFFFFFFF08
:1017900080B582B000AF7860396038684FF00001E2
:1017A0000EF062FF0346002B03D04FF000033B60B6
:1017B00010E038680EF026F902460B46104619462E
:1017C00007A3D3E900230EF001FC0346002B01D050
:1017D000054B3B607B683A689A620837BD4680BD1E
:1017E000522CB7B4B48AD540A655AC46AFF30080AE
:1017F00080B582B000AF7860396038684FF0000182
:101800000EF032FF0346002B03D04FF07E533B60B7
:1018100008E0386806490EF045FF0346002B01D06A
:10182000034B3B607B683A685A620837BD4680BD0F
:101830000000204180B582B000AF78600B467B800D
:101840007B6803F12C027B8810461946FFF74AFF9C
:101850000837BD4680BD00BF80B582B000AF78605C
:101860007B689B6A7868194600F00AF87B682C331D
:101870001846FFF757FF0837BD4680BDFFFFFFFF43
:1018800080B582B000AF7860396038680EF0BAF881
:1018900002460B461046194609A3D3E900230EF071
:1018A00005F902460B46104619460EF0C1FB0246EA
:1018B0007B68DA610837BD4680BD00BFAFF30080AA
:1018C0005202FF7889C4F74080B400AF4FF0FF3375
:1018D0001846BD465DF8047B704700BF80B483B0F6
:1018E00000AF786039604FF0FF3318460C37BD46C3
:1018F0005DF8047B704700BF80B400AF4FF0FF334A
:101900001846BD465DF8047B704700BF80B400AF49
:10191000BD465DF8047B704780B588B000AF786045
:1019200000237B6101F078FD3D4B1B68002B04D147
:1019300000F0C8F83A4B01221A607B68002B0DD0EA
:1019400008237A6813447B607B6803F00703002B4D
:1019500004D07B6823F0070308337B607B68002B8F
:1019600057D07A6847F2F7739A4252D82D4BBB6131
:101970002C4B1B68FB6104E0FB69BB61FB691B68C6
:10198000FB61FB695A687B689A4203D2FB691B685A
:10199000002BF1D1FA69244B9A423AD0BB691A68FC
:1019A000082313447B61FB691A68BB691A60FB69F1
:1019B0005A687B68D21A08235B009A4222D9FA69D6
:1019C0007B681344FB60FB695A687B68D21AFB682A
:1019D0005A60FB697A685A60FB685B68BB60114BB0
:1019E0003B6102E03B691B683B613B691B685A68CD
:1019F000BB689A42F6D33B691A68FB681A603B6978
:101A0000FA681A60094B1A68FB695B68D21A074BBF
:101A10001A6001F00FFD7B6918462037BD4680BD76
:101A2000C0190020B0190020B81900206497FF1FCA
:101A300080B586B000AF78607B683B617B68002B27
:101A400027D008235B423A6913443B613B69FB6042
:101A500001F0E2FCFB685B68BB600F4B7B6102E05E
:101A60007B691B687B617B691B685A68BB689A420B
:101A7000F6D37B691A68FB681A607B69FA681A609A
:101A8000FB685A68054B1B681A44044B1A6001F046
:101A9000D1FC1837BD4680BDB01900206497FF1FE8
:101AA00080B400AF034B1B681846BD465DF8047B4D
:101AB000704700BF6497FF1F80B400AFBD465DF85C
:101AC000047B704780B483B000AF0F4B23F0070353
:101AD0007B600E4B7A681A600C4B00225A600C4BEC
:101AE00047F2F8725A600A4B00221A607B683B602A
:101AF0003B6847F2F8725A603B68054A1A600C3737
:101B0000BD465DF8047B7047B8A1FF1FB0190020E7
:101B1000B819002080B500AF104B1B6803F4802378
:101B2000002B01D004F01CFB0C4B1B6803F48063FA
:101B3000002B01D000F014F8084B1B6803F400637D
:101B4000002B01D000F00CF8044B1B6803F4805309
:101B5000002B02D000F004F8DEE7DDE7348004401B
:101B600080B500AFFFF704FB80BD00BF80B500AFBC
:101B7000034B1B685A1C024B1A6003F033FA80BDFA
:101B8000E41C002080B582B000AF7860396003F0BB
:101B9000F9F9FFF7EDFAFEE780B400AFBD465DF856
:101BA000047B704780B485B000AF7860074B1B683A
:101BB000FB60064B1A687B681A44044B1A60FB688A
:101BC00018461437BD465DF8047B70476897FF1FC1
:101BD00080B485B000AFF860B9607A600023184621
:101BE0001437BD465DF8047B704700BF80B483B0F6
:101BF00000AF78604FF0FF3318460C37BD465DF8F4
:101C0000047B704780B483B000AF786039603B6874
:101C10004FF400525A60002318460C37BD465DF859
:101C2000047B704780B483B000AF7860012318460E
:101C30000C37BD465DF8047B704700BF80B485B0AB
:101C400000AFF860C7E900234FF0FF3318461437A0
:101C5000BD465DF8047B704780B483B000AF786008
:101C6000FEE700BF80B400AFFEE700BF80B483B0E2
:101C700000AF7860012318460C37BD465DF8047B41
:101C8000704700BF80B483B000AF78600C37BD46AA
:101C90005DF8047B704700BF80B487B000AF4FF49D
:101CA00080737B61EFF313833B613B69002B02D0B0
:101CB0004FF0FF3325E0EFF31083FB60FB68002B50
:101CC00001D000231DE0EFF30583BB60BB68002B50
:101CD0000AD0BB680F2B02D800237B6104E0BA68EE
:101CE0000B4B13441B787B61EFF311837B607B68A4
:101CF000002B05D07A697B689A4201D97B687B61A9
:101D00007B6918461C37BD465DF8047B704700BFF1
:101D1000F0E300E080B500AFFFF7A8FB03461846EC
:101D200080BD00BF80B584B000AF786039607B684B
:101D3000FB60FB68002B02D103F024F9FEE703F0FF
:101D4000EBF8FB681A68FB68DB6BF968096C01FB50
:101D500003F31A44FB685A60FB6800229A63FB682D
:101D60001A68FB689A60FB681A68FB68DB6B013BCA
:101D7000F968096C01FB03F31A44FB68DA60FB683D
:101D80004FF0FF325A64FB684FF0FF329A643B68B1
:101D9000002B0ED1FB681B69002B14D0FB6810339D
:101DA000184601F009FE0346012B0CD103F0A4F8FC
:101DB00009E0FB681033184600F034FEFB6824335A
:101DC000184600F02FFE03F0C5F80123184610371F
:101DD000BD4680BD80B588B000AFF860B9601346DD
:101DE000FB710023BB61FB68002B02D103F0CAF832
:101DF000FEE7BB68002B02D10023FB6105E0FB6816
:101E0000BA6802FB03F30133FB61FB694C331846EC
:101E1000FFF782FD78617B69002B17D0BB68002B30
:101E200003D17B697A691A6004E07B6903F14C0293
:101E30007B691A607B69FA68DA637B69BA681A643D
:101E400078690121FFF76EFF7B69BB61BB69002BDD
:101E500002D103F097F8FEE7BB6918462037BD466C
:101E600080BD00BF80B584B000AF0346FB714C203D
:101E7000FFF752FDF860FB68002B2CD0FB680022B6
:101E80005A60FB6800221A60FB6800229A60FB68B7
:101E90000022DA60FB6800229A63FB680122DA63A1
:101EA000FB6800221A64FB684FF0FF325A64FB683B
:101EB0004FF0FF329A64FB681033184600F0B2FD11
:101EC000FB682433184600F0ADFDF86800210022BD
:101ED000002300F08BF8FB6818461037BD4680BD24
:101EE00090B585B000AF78607B68BB60BB68002BA5
:101EF00002D103F047F8FEE7BB685C6802F000F827
:101F000003469C4211D1BB68DB685A1EBB68DA608D
:101F1000BB68DB68002B05D1B868002100220023D4
:101F200000F064F80123FB6001E00023FB60FB6824
:101F300018461437BD4690BD90B585B000AF7860A7
:101F400039607B68BB60BB68002B02D103F01AF8D4
:101F5000FEE7BB685C6801F0D3FF03469C4207D1F3
:101F6000BB68DB685A1CBB68DA600123FB600EE0CB
:101F7000B86800213A68002300F0C6F9F860FB68F1
:101F8000012B04D1BB68DB685A1CBB68DA60FB68B4
:101F900018461437BD4690BD80B584B000AF786058
:101FA00039607B68002B02D102F0ECFFFEE73A6853
:101FB0007B689A4202D902F0E5FFFEE778680021CB
:101FC0000222FFF707FFF860FB68002B02D0FB68D6
:101FD0003A689A63FB68002B02D102F0D3FFFEE758
:101FE000FB6818461037BD4680BD00BF80B58AB07B
:101FF00000AFF860B9607A603B6000237B62FB68E9
:102000003B623B6A002B02D102F0BCFFFEE7BB68DB
:10201000002B03D13B6A1B6C002B01D1012300E094
:102020000023002B02D102F0ADFFFEE73B68022B3C
:1020300003D13B6ADB6B012B01D1012300E00023BC
:10204000002B02D102F09EFFFEE701F069FF03467C
:10205000002B02D17B68002B01D1012300E000237B
:10206000002B02D102F08EFFFEE702F055FF3B6A23
:102070009A6B3B6ADB6B9A4202D33B68022B1DD101
:10208000386AB9683A6800F015FBF8613B6A5B6A28
:10209000002B0AD03B6A2433184601F08DFC03461E
:1020A000012B07D102F028FF04E0FB69002B01D0CF
:1020B00002F022FF02F04EFF012359E07B68002B63
:1020C00003D102F047FF002352E07B6A002B06D1C8
:1020D00007F11403184601F021FD01237B6202F091
:1020E00039FF01F099F902F017FF3B6A5B6CB3F11D
:1020F000FF3F02D13B6A00225A643B6A9B6CB3F1FA
:10210000FF3F02D13B6A00229A6402F023FF07F1ED
:1021100014023B1D1046194601F01AFD0346002B20
:102120001ED1386A00F0D4FB0346002B12D03B6A64
:1021300003F110027B681046194601F05BFB386A18
:1021400000F04CFB01F076F90346002B0FD102F0B2
:10215000D3FE0CE0386A00F041FB01F06BF984E734
:10216000386A00F03BFB01F065F9002300E07CE7F2
:1021700018462837BD4680BD80B588B000AFF860EE
:10218000B9607A603B60FB68BB61BB69002B02D120
:1021900002F0F8FEFEE7BB68002B03D1BB691B6CA5
:1021A000002B01D1012300E00023002B02D102F01B
:1021B000E9FEFEE73B68022B03D1BB69DB6B012B19
:1021C00001D1012300E00023002B02D102F0DAFE4E
:1021D000FEE702F02DFF02F0D5FE7861BB699A6B35
:1021E000BB69DB6B9A4202D33B68022B24D1B869EE
:1021F000B9683A6800F05EFABB699B6CB3F1FF3FC7
:1022000012D1BB695B6A002B13D0BB69243318461B
:1022100001F0D2FB0346002B0BD07B68002B08D0CB
:102220007B6801221A6004E0BB699B6C5A1CBB6985
:102230009A640123FB6101E00023FB61786902F0ED
:10224000ABFEFB6918462037BD4680BD80B586B021
:1022500000AF786039607B683B613B69002B02D13D
:1022600002F090FEFEE73B691B6C002B02D002F0EF
:1022700089FEFEE73B691B68002B03D13B695B6865
:10228000002B01D1012300E00023002B02D102F03A
:1022900079FEFEE702F0CCFE02F074FEF8603B69C6
:1022A0009A6B3B69DB6B9A4224D23B699B6B5A1C4D
:1022B0003B699A633B699B6CB3F1FF3F12D13B6969
:1022C0005B6A002B13D03B692433184601F074FB82
:1022D0000346002B0BD03B68002B08D03B68012243
:1022E0001A6004E03B699B6C5A1C3B699A640123A9
:1022F0007B6101E000237B61F86802F04DFE7B69A1
:1023000018461837BD4680BD80B58AB000AFF8606A
:10231000B9607A603B6000237B62FB683B623B6A8A
:10232000002B02D102F02EFEFEE7BB68002B03D18A
:102330003B6A1B6C002B01D1012300E00023002B22
:1023400002D102F01FFEFEE701F0EAFD0346002B7A
:1023500002D17B68002B01D1012300E00023002B78
:1023600002D102F00FFEFEE702F0D6FD3B6A9B6B46
:10237000002B3BD03B6ADB68FB61386AB96800F030
:1023800007FA3B68002B1CD13B6A9B6B5A1E3B6AC9
:102390009A633B6A1B68002B04D101F0E3FE0246FE
:1023A0003B6A5A603B6A1B69002B1BD03B6A1033A7
:1023B000184601F001FB0346012B13D102F09CFDEE
:1023C00010E03B6AFA69DA603B6A5B6A002B09D06D
:1023D0003B6A2433184601F0EFFA0346002B01D084
:1023E00002F08AFD02F0B6FD012366E07B68002B57
:1023F00003D102F0AFFD00235FE07B6A002B06D122
:1024000007F11403184601F089FB01237B6202F0F7
:10241000A1FD01F001F802F07FFD3B6A5B6CB3F1B6
:10242000FF3F02D13B6A00225A643B6A9B6CB3F1C6
:10243000FF3F02D13B6A00229A6402F08BFD07F154
:1024400014023B1D1046194601F082FB0346002B87
:102450002BD1386A00F00EFA0346002B1FD03B6ADE
:102460001B68002B08D102F057FD3B6A5B681846D9
:1024700001F074FD02F06EFD3B6A03F124027B68FB
:102480001046194601F0B6F9386A00F0A7F900F0D5
:10249000D1FF0346002B0FD102F02EFD0CE0386A6D
:1024A00000F09CF900F0C6FF5EE7386A00F096F98C
:1024B00000F0C0FF002300E056E718462837BD466D
:1024C00080BD00BF80B588B000AFF860B9607A60A9
:1024D000FB68BB61BB69002B02D102F053FDFEE734
:1024E000BB68002B03D1BB691B6C002B01D10123FE
:1024F00000E00023002B02D102F044FDFEE702F0D1
:1025000097FD02F03FFD7861BB699B6B002B28D0E3
:10251000B869B96800F03CF9BB699B6B5A1EBB698E
:102520009A63BB695B6CB3F1FF3F12D1BB691B6956
:10253000002B13D0BB691033184601F03DFA034657
:10254000002B0BD07B68002B08D07B6801221A601F
:1025500004E0BB695B6C5A1CBB695A640123FB61D4
:1025600001E00023FB61786902F016FDFB69184663
:102570002037BD4680BD00BF80B586B000AF786013
:1025800039607B683B613B69002B02D102F0FAFCA9
:10259000FEE73B68002B03D13B691B6C002B01D18C
:1025A000012300E00023002B02D102F0EBFCFEE748
:1025B0003B691B6C002B02D102F0E4FCFEE702F049
:1025C00037FD02F0DFFCF8603B699B6B002B0CD001
:1025D0003B69DB68BB603869396800F0D9F83B6952
:1025E000BA68DA6001237B6101E000237B61F8684F
:1025F00002F0D2FC7B6918461837BD4680BD00BF8B
:1026000080B584B000AF78607B68002B02D102F007
:10261000B9FCFEE702F080FC7B689B6BFB6002F07C
:1026200099FCFB6818461037BD4680BD80B584B064
:1026300000AF78607B68FB60FB68002B02D102F082
:10264000A1FCFEE702F068FCFB68DA6BFB689B6BA1
:10265000D31ABB6002F07EFCBB6818461037BD463B
:1026600080BD00BF80B584B000AF78607B68002B70
:1026700002D102F087FCFEE77B689B6BFB60FB6886
:1026800018461037BD4680BD80B584B000AF786075
:102690007B68FB60FB68002B02D102F073FCFEE755
:1026A000F86800F06FF9F868FFF7C2F91037BD4617
:1026B00080BD00BF80B586B000AFF860B9607A60B9
:1026C00000237B61FB681B6C002B0DD1FB681B6832
:1026D000002B52D1FB685B68184601F0B5FC7861AD
:1026E000FB6800225A6048E07B68002B1AD1FB6827
:1026F0009A68FB681B6C1046B9681A460FF0FAFC22
:10270000FB689A68FB681B6C1A44FB689A60FB685C
:102710009A68FB685B689A422FD3FB681A68FB686B
:102720009A602AE0FB68DA68FB681B6C1046B9689F
:102730001A460FF0DFFCFB68DA68FB681B6C5B4233
:102740001A44FB68DA60FB68DA68FB681B689A4227
:1027500007D2FB685A68FB681B6C5B421A44FB6833
:10276000DA607B68022B08D1FB689B6B002B04D0DE
:10277000FB689B6B5A1EFB689A63FB689B6B5A1C39
:10278000FB689A637B6918461837BD4680BD00BF59
:1027900080B582B000AF786039607B681B6C002B1D
:1027A00019D07B68DA687B681B6C1A447B68DA6036
:1027B0007B68DA687B685B689A4203D37B681A6837
:1027C0007B68DA607B68DA687B681B6C3868114666
:1027D0001A460FF08FFC0837BD4680BD80B582B029
:1027E00000AF786002F098FB14E07B685B6A002B16
:1027F0000AD07B682433184601F0DEF80346002B2C
:1028000003D001F0F5F900E008E07B689B6C5A1EEC
:102810007B689A647B689B6C002BE6DC7B684FF0DE
:10282000FF329A6402F096FB02F076FB14E07B68BC
:102830001B69002B0FD07B681033184601F0BCF8E1
:102840000346002B01D001F0D3F97B685B6C5A1E64
:102850007B685A6400E003E07B685B6C002BE6DC7D
:102860007B684FF0FF325A6402F074FB0837BD46B4
:1028700080BD00BF80B584B000AF786002F04CFB33
:102880007B689B6B002B02D10123FB6001E00023DE
:10289000FB6002F05FFBFB6818461037BD4680BD49
:1028A00080B584B000AF78607B68002B02D102F065
:1028B00069FBFEE77B689B6B002B02D10123FB6069
:1028C00001E00023FB60FB6818461037BD4680BD61
:1028D00080B584B000AF786002F01EFB7B689A6B15
:1028E0007B68DB6B9A4202D10123FB6001E000238D
:1028F000FB6002F02FFBFB6818461037BD4680BD19
:1029000080B584B000AF78607B68002B02D102F004
:1029100039FBFEE77B689A6B7B68DB6B9A4202D1DE
:102920000123FB6001E00023FB60FB6818461037C1
:10293000BD4680BD80B485B000AF786039600023AB
:10294000FB6014E00E4BFA6853F83230002B0BD1C9
:102950000B4BFA68396843F83210094AFB68DB0010
:1029600013447A685A6005E0FB680133FB60FB683A
:10297000072BE7D91437BD465DF8047B704700BFCD
:10298000C419002080B485B000AF78600023FB60DC
:1029900010E00C4AFB68DB0013445A687B689A42DB
:1029A00005D1084BFA68002143F8321005E0FB68B6
:1029B0000133FB60FB68072BEBD91437BD465DF88C
:1029C000047B7047C419002080B586B000AFF86062
:1029D000B9607A60FB687B6102F09EFA7B695B6C90
:1029E000B3F1FF3F02D17B6900225A647B699B6C83
:1029F000B3F1FF3F02D17B6900229A6402F0AAFA88
:102A00007B699B6B002B06D17B6924331846B96820
:102A10007A6800F08BFF7869FFF7E0FE1837BD4653
:102A200080BD00BF80B483B000AF78607B6803F1E5
:102A300008027B685A607B684FF0FF329A607B68BF
:102A400003F108027B68DA607B6803F108027B68A7
:102A50001A617B6800221A600C37BD465DF8047B62
:102A6000704700BF80B483B000AF78607B680022FD
:102A70001A610C37BD465DF8047B704780B485B0A1
:102A800000AF786039607B685B68FB603B68FA6820
:102A90005A60FB689A683B689A60FB689B683A6872
:102AA0005A60FB683A689A603B687A681A617B688A
:102AB0001B685A1C7B681A601437BD465DF8047B9E
:102AC000704700BF80B485B000AF786039603B6864
:102AD0001B68BB60BB68B3F1FF3F03D17B681B6918
:102AE000FB600CE07B680833FB6002E0FB685B681E
:102AF000FB60FB685B681A68BB689A42F6D9FB68A2
:102B00005A683B685A603B685B683A689A603B6801
:102B1000FA689A60FB683A685A603B687A681A619A
:102B20007B681B685A1C7B681A601437BD465DF8C9
:102B3000047B704780B485B000AF78607B681B6908
:102B4000FB607B685B687A6892689A607B689B68C8
:102B50007A6852685A60FB685A687B689A4203D167
:102B60007B689A68FB685A607B6800221A61FB6880
:102B70001B685A1EFB681A60FB681B6818461437EE
:102B8000BD465DF8047B704780B58AB002AFF8603F
:102B9000B9603B601346FB80FB68002B02D102F05A
:102BA000F1F9FEE7BB6A042B02D902F0EBF9FEE76C
:102BB000FB881846396B01F037F9B861BB69002B07
:102BC0006DD0BB691A6BFB8803F18043013B9B000E
:102BD00013447B617B6923F007037B617B6903F00E
:102BE0000703002B02D002F0CDF9FEE7FB8800932B
:102BF000B869B968BA6A7B6B01F016F87869F96848
:102C00003A6802F0B1F80246BB691A60FB6A002B11
:102C100002D0FB6ABA691A6002F07EF92B4B1B687E
:102C20005A1C2A4B1A602A4B1B68002B09D1284BCF
:102C3000BA691A60254B1B68012B0FD101F046F8C9
:102C40000CE0244B1B68002B08D1214B1B68DA6A6F
:102C5000BB6A9A4202D81E4BBA691A601E4B1B68A7
:102C60005A1C1D4B1A60BB69DB6A01229A401B4B40
:102C70001B681A43194B1A60BB69DA6A13469B003A
:102C800013449B00164A1A44BB6904331046194684
:102C9000FFF7F4FE0123FB6102F05CF902E04FF064
:102CA000FF33FB61FB69012B0BD10A4B1B68002B27
:102CB00007D0074B1B68DA6ABB6A9A4201D202F05E
:102CC0001BF9FB6918462037BD4680BDDC1A002081
:102CD000041A0020E81A0020F81A0020E41A002044
:102CE000081A002080B584B000AF786002F014F9B3
:102CF0007B68002B02D12D4B1B6800E07B68FB60DA
:102D0000FB6804331846FFF715FF0346002B15D167
:102D1000FB68DA6A264913469B0013449B000B4468
:102D20001B68002B0AD1FB68DB6A012202FA03F35D
:102D3000DA43204B1B681A401E4B1A60FB689B6AE3
:102D4000002B04D0FB6818331846FFF7F3FEFB682E
:102D5000043319481946FFF791FE184B1B685A1C9B
:102D6000164B1A60164B1B685A1C154B1A6002F062
:102D7000F1F8144B1B68002B14D00C4B1B68FA683D
:102D80009A4209D1104B1B68002B02D002F0FAF8CE
:102D9000FEE702F0B1F805E002F0BEF801F08CF8B1
:102DA00002F0D8F81037BD4680BD00BF041A0020DD
:102DB000081A0020E41A0020B01A0020C41A0020CB
:102DC000F81A0020E81A0020001B002080B586B009
:102DD00000AF7860396000237B617B68002B02D1F3
:102DE00002F0D0F8FEE73B68002B02D102F0CAF8EF
:102DF000FEE72B4B1B68002B02D002F0C3F8FEE766
:102E000000F00AFB274B1B683B617B681A683B6834
:102E10001344FB607B681A683B699A420BD97B6854
:102E20001A68FB689A4211D9FA683B699A420DD92F
:102E300001237B610AE07B681A68FB689A4203D829
:102E4000FA683B699A4201D901237B617B68FA6881
:102E50001A607B69002B17D0134B1B68043318468C
:102E6000FFF768FE0346002B0BD10F4B1B68DB6A94
:102E7000012202FA03F3DA430C4B1B681A400B4B96
:102E80001A60F86800F09AFF00F0D4FAB860BB68E6
:102E9000002B01D102F030F81837BD4680BD00BFCD
:102EA000001B0020E01A0020041A0020E41A002071
:102EB00080B584B000AF78600023FB607B68002B96
:102EC00028D0184B1B68002B02D002F05BF8FEE7FD
:102ED00000F0A2FA144B1A687B681344BB60134BD2
:102EE0001B6804331846FFF725FE0346002B0BD161
:102EF0000E4B1B68DB6A012202FA03F3DA430C4B28
:102F00001B681A400A4B1A60B86800F057FF00F0BF
:102F100091FAF860FB68002B01D101F0EDFF10374A
:102F2000BD4680BD001B0020E01A0020041A0020CE
:102F3000E41A002080B584B000AF786001F0ECFFA7
:102F40007B68002B02D1074B1B6800E07B68FB60AD
:102F5000FB68DB6ABB6001F0FDFFBB6818461037F9
:102F6000BD4680BD041A002080B586B000AF7860F1
:102F700002F05EF802F006F878617B68002B02D15F
:102F8000074B1B6800E07B683B613B69DB6AFB60C9
:102F9000786902F001F8FB6818461837BD4680BD15
:102FA000041A002080B586B000AF78603960002335
:102FB0007B613B68042B02D901F0E4FFFEE73B682C
:102FC000042B01D904233B6001F0A6FF7B68002B92
:102FD00002D1404B1B6800E07B683B613B691B6C86
:102FE000FB60FA683B689A426ED03A68FB689A4286
:102FF0000DD9384B1B683A699A420FD0354B1B6884
:10300000DA6A3B689A4209D801237B6106E0314BBA
:103010001B683A699A4201D101237B613B69DB6AF3
:10302000BB603B691A6C3B69DB6A9A4202D13B691F
:103030003A68DA623B693A681A643B699B69002B1B
:1030400004DB3B68C3F105023B699A613B6959693E
:10305000BA6813469B0013449B001F4A13449942CD
:1030600001D1012300E00023002B28D03B69043369
:103070001846FFF75FFD0346002B09D1BB6801220C
:1030800002FA03F3DA43154B1B681A40134B1A601C
:103090003B69DB6A01229A40104B1B681A430F4BB5
:1030A0001A603B69DA6A13469B0013449B000A4A84
:1030B0001A443B69043310461946FFF7DFFC7B696D
:1030C000012B01D101F018FF01F044FF1837BD4674
:1030D00080BD00BF041A0020081A0020E41A002056
:1030E00080B584B000AF786001F016FF7B68002BDC
:1030F00002D1304B1B6800E07B68FB60FB68043347
:103100001846FFF717FD0346002B15D1FB68DA6A56
:10311000294913469B0013449B000B441B68002B5A
:103120000AD1FB68DB6A012202FA03F3DA43234B7C
:103130001B681A40214B1A60FB689B6A002B04D065
:10314000FB6818331846FFF7F5FCFB6804331C488E
:103150001946FFF793FC01F0FDFE164B1B68FA6859
:103160009A421AD1174B1B68002B09D0164B1B68CB
:10317000002B02D001F006FFFEE701F0BDFE16E0D5
:103180000F4B1A68114B1B689A4203D1094B00225E
:103190001A600CE000F0B6FA09E00A4B1B68002B3D
:1031A00005D001F0B9FE00F087FE01F0D3FE103724
:1031B000BD4680BD041A0020081A0020E41A002031
:1031C000C81A0020E81A0020001B0020DC1A00208A
:1031D00080B584B000AF78600023FB607B68BB6083
:1031E0007B68002B02D101F0CDFEFEE7BB685A6977
:1031F0000E4B9A4201D1012300E00023002B0FD097
:10320000BB689A6A0A4B9A420AD0BB689B6A002B39
:1032100001D1012300E00023002B01D00123FB603A
:10322000FB6818461037BD4680BD00BFC81A002095
:103230009C1A002080B584B000AF78607B68FB608A
:103240007B68002B02D101F09DFEFEE7FB68002B9E
:1032500033D01B4B1B68FA689A422ED001F05CFEFB
:10326000F868FFF7B5FF0346012B24D1FB68043350
:103270001846FFF75FFCFB68DB6A01229A40114B9E
:103280001B681A430F4B1A60FB68DA6A13469B00EF
:1032900013449B000C4A1A44FB6804331046194639
:1032A000FFF7ECFBFB68DA6A054B1B68DB6A9A42A6
:1032B00001D301F021FE01F04DFE1037BD4680BD67
:1032C000041A0020E41A0020081A002080B586B0F5
:1032D00000AF786000237B617B683B617B68002BDB
:1032E00002D101F04FFEFEE701F0A2FE01F04AFE1E
:1032F000F8603869FFF76CFF0346012B2FD11C4B98
:103300001B68002B25D13B69DA6A1A4B1B68DB6A04
:103310009A4201D301237B613B6904331846FFF7CE
:1033200009FC3B69DB6A01229A40134B1B681A4374
:10333000114B1A603B69DA6A13469B0013449B00E9
:103340000E4A1A443B69043310461946FFF796FBB0
:1033500005E03B6918330A481946FFF78FFBF86808
:1033600001F01AFE7B6918461837BD4680BD00BFC4
:10337000001B0020041A0020E41A0020081A002074
:103380009C1A002080B586B004AF00230093002370
:1033900001930023029300230393144814495A22F3
:1033A0000023FFF7F1FB78607B68012B02D101F06D
:1033B0009BF978607B68012B0ED101F0E3FD0D4B8A
:1033C0004FF0FF321A600C4B01221A600B4B0022A7
:1033D0001A6001F025FD05E07B68002B02D101F0A9
:1033E000D1FDFEE70837BD4680BD00BF093C0000A7
:1033F00038760100FC1A0020E81A0020E01A0020AC
:1034000080B500AF01F0BEFD024B00221A6001F052
:1034100065FD80BDE81A002080B400AF044B1B6836
:103420005A1C034B1A60BD465DF8047B704700BF11
:10343000001B002080B582B000AF00237B60374BBB
:103440001B68002B02D101F09DFDFEE701F064FD39
:10345000324B1B685A1E314B1A60304B1B68002BD5
:1034600055D12F4B1B68002B51D02EE02D4BDB6824
:10347000DB683B603B6818331846FFF75BFB3B6833
:1034800004331846FFF756FB3B68DB6A01229A407B
:10349000254B1B681A43244B1A603B68DA6A1346B3
:1034A0009B0013449B00214A1A443B680433104696
:1034B0001946FFF7E3FA3B68DA6A1D4B1B68DB6AC3
:1034C0009A4202D31B4B01221A60164B1B68002B39
:1034D000CCD1194B1B68002B11D00CE000F05CF82C
:1034E0000346002B02D0134B01221A60124B1B68BB
:1034F0005A1E114B1A60104B1B68002BEED10D4B5E
:103500001B68012B03D101237B6001F0F5FC01F066
:1035100021FD7B6818460837BD4680BD001B002092
:10352000DC1A00209C1A0020E41A0020081A00204F
:10353000041A0020F01A0020EC1A002080B483B096
:1035400000AF054B1B687B607B6818460C37BD4697
:103550005DF8047B704700BFE01A002080B582B0A0
:1035600000AF01F065FD00237B60044B1B683B60EE
:103570003B6818460837BD4680BD00BFE01A0020F2
:1035800080B400AF034B1B681846BD465DF8047B52
:10359000704700BFDC1A002080B586B000AF002362
:1035A0007B614D4B1B68002B40F086804B4B1B68AA
:1035B0005A1C4A4B1A60494B1B683B613B69002B04
:1035C00018D1474B1B681B68002B02D001F0DAFCB6
:1035D000FEE7434B1B68FB60424B1A68404B1A6086
:1035E000404BFA681A60404B1B685A1C3E4B1A60ED
:1035F00000F062FC3D4B1B683A699A424DD3384B50
:103600001B681B68002B01D1012300E00023002B65
:1036100004D0364B4FF0FF321A603EE0304B1B684F
:10362000DB68DB68BB60BB685B687B603A697B68B2
:103630009A4203D22D4B7A681A602EE0BB6804339D
:103640001846FFF777FABB689B6A002B04D0BB686B
:1036500018331846FFF76EFABB68DB6A01229A40FE
:10366000234B1B681A43224B1A60BB68DA6A134665
:103670009B0013449B001F4A1A44BB680433104646
:103680001946FFF7FBF9BB68DA6A1B4B1B68DB6A5C
:103690009A4201D301237B61B1E7174B1B68DA6AB9
:1036A000144913469B0013449B000B441B68012BD9
:1036B00007D901237B6104E0104B1B685A1C0F4B98
:1036C0001A600F4B1B68002B01D001237B617B69C3
:1036D00018461837BD4680BD001B0020E01A0020A8
:1036E000941A0020981A0020F41A0020FC1A0020D6
:1036F000E41A0020081A0020041A0020EC1A002006
:10370000F01A002080B586B000AF354B1B68002B47
:1037100003D0344B01221A605EE0324B00221A6063
:10372000314B1B681B6B7B614FF0A5333B617B69A1
:103730001A683B699A4211D17B6904331A683B6964
:103740009A420BD17B6908331A683B699A4205D1CA
:103750007B690C331A683B699A4208D0224B1A687D
:10376000214B1B68343310461946FEF70BFA1F4BEA
:103770001B687B607B68B3FA83F3FB70FB78C3F153
:103780001F03FB601A49FA6813469B0013449B0011
:103790000B441B68002B02D101F0F4FBFEE7FA6832
:1037A00013469B0013449B00114A1344BB60BB6843
:1037B0005B685A68BB685A60BB685A68BB68083364
:1037C0009A4204D1BB685B685A68BB685A60BB68A0
:1037D0005B68DA68044B1A601837BD4680BD00BFCD
:1037E000001B0020F01A0020041A0020E41A002018
:1037F000081A002080B584B000AF786039607B681B
:10380000002B02D101F0BEFBFEE7194B1B681833F9
:1038100078681946FFF756F9154B1B6804331846AC
:10382000FFF788F90346002B0BD1114B1B68DB6AAD
:10383000012202FA03F3DA430E4B1B681A400D4BC8
:103840001A603B68B3F1FF3F07D1094B1B68043393
:1038500009481946FFF712F907E0084B1A683B6858
:103860001344FB60F86800F0A9FA1037BD4680BD2C
:10387000041A0020E41A0020C81A0020E01A0020D0
:1038800080B586B000AFF860B9607A60FB68002B45
:1038900002D101F077FBFEE71F4B1B68002B02D122
:1038A00001F070FBFEE71D4B1B68BA6842F0004256
:1038B0009A611A4B1B681833F8681946FFF7DEF84F
:1038C000164B1B6804331846FFF734F90346002BE8
:1038D0000BD1124B1B68DB6A012202FA03F3DA43B5
:1038E0000F4B1B681A400E4B1A607B68B3F1FF3F09
:1038F00007D10A4B1B6804330A481946FFF7BEF884
:1039000007E0094B1A687B6813447B61786900F013
:1039100055FA1837BD4680BD001B0020041A002050
:10392000E41A0020C81A0020E01A002080B586B0F2
:1039300000AFF860B9607A60FB68002B02D101F03B
:1039400021FBFEE7184B1B681833F8681946FFF790
:1039500095F8154B1B6804331846FFF7EBF8034640
:10396000002B0BD1104B1B68DB6A012202FA03F318
:10397000DA430E4B1B681A400C4B1A607B68012B14
:1039800007D1094B1B68043309481946FFF776F83D
:1039900007E0084B1A68BB6813447B61786900F044
:1039A0000DFA1837BD4680BD041A0020E41A002025
:1039B000C81A0020E01A002080B584B000AF7860FB
:1039C0007B68DB68DB68BB60BB68002B02D101F061
:1039D000D9FAFEE7BB6818331846FFF7ABF81D4B62
:1039E0001B68002B1CD1BB6804331846FFF7A2F8F4
:1039F000BB68DB6A01229A40174B1B681A43164BBF
:103A00001A60BB68DA6A13469B0013449B00134A92
:103A10001A44BB68043310461946FFF72FF805E037
:103A2000BB6818330E481946FFF728F8BB68DA6AF6
:103A30000C4B1B68DB6A9A4205D90123FB600A4BD9
:103A400001221A6001E00023FB60FB681846103772
:103A5000BD4680BD001B0020E41A0020081A00208B
:103A60009C1A0020041A0020F01A002080B584B0AF
:103A700000AF78603960244B1B68002B02D101F045
:103A800081FAFEE73B6843F000427B681A607B687E
:103A9000DB68BB60BB68002B02D101F073FAFEE764
:103AA0007868FFF747F8BB6804331846FFF742F819
:103AB000BB68DB6A01229A40144B1B681A43134B04
:103AC0001A60BB68DA6A13469B0013449B00104AD5
:103AD0001A44BB68043310461946FEF7CFFFBB6893
:103AE000DA6A0C4B1B68DB6A9A4205D90123FB603A
:103AF000094B01221A6001E00023FB60FB681846B5
:103B00001037BD4680BD00BF001B0020E41A002016
:103B1000081A0020041A0020F01A002080B582B094
:103B200000AF78607B68002B02D101F02BFAFEE732
:103B3000054B1A687B681A60044B1A687B685A60E8
:103B40000837BD4680BD00BFF41A0020E01A0020EF
:103B500080B584B000AF786039607B68002B02D1FB
:103B600001F010FAFEE73B68002B02D101F00AFADF
:103B7000FEE701F0D1F91C4B1B68BB603B681B687A
:103B8000B3F1FF3F02D10023FB6026E07B681A6897
:103B9000164B1B689A4207D07B685A68BB689A42EA
:103BA00002D80123FB6018E07B685B68BA68D21A10
:103BB0003B681B689A420ED23B681A687B6859685A
:103BC000BB68CB1A1A443B681A607868FFF7A6FFF7
:103BD0000023FB6001E00123FB6001F0BBF9FB68FF
:103BE00018461037BD4680BDE01A0020F41A0020A8
:103BF00080B400AF034B01221A60BD465DF8047B20
:103C0000704700BFF01A002080B582B000AF786026
:103C100000F09AF8034B1B68012B01D901F06CF9F5
:103C2000F6E700BF081A002080B586B000AFF86044
:103C3000B9607A603B6000237B6112E0BA687B69FF
:103C400013441A78F9687B690B4430331A71BA68E7
:103C50007B6913441B78002B00D105E07B6901339D
:103C60007B617B69092BE9D9FB68002283F83D2041
:103C70007B68042B01D904237B60FB687A68DA62D5
:103C8000FB687A681A64FB6800225A64FB68043394
:103C90001846FEF7E7FEFB6818331846FEF7E2FE0B
:103CA000FB68FA681A617B68C3F10502FB689A61D8
:103CB000FB68FA685A62FB6800229A64FB6800227B
:103CC00083F84C201837BD4680BD00BF80B582B058
:103CD00000AF00237B600CE07A6813469B0013441E
:103CE0009B00114A13441846FEF79CFE7B68013383
:103CF0007B607B68042BEFD90C48FEF793FE0C48E1
:103D0000FEF790FE0B48FEF78DFE0B48FEF78AFE8D
:103D10000A48FEF787FE0A4B044A1A60094B044A18
:103D20001A600837BD4680BD081A00206C1A0020B2
:103D3000801A00209C1A0020B01A0020C81A002007
:103D4000941A0020981A002080B582B000AF28E0B5
:103D5000FFF762FB164B1B68002B14BF00230123E7
:103D6000DBB27B60FFF766FB7B68002B19D101F0AB
:103D7000D3F80F4BDB68DB683B603B6804331846C5
:103D8000FEF7D8FE0B4B1B685A1E0A4B1A600A4BF3
:103D90001B685A1E084B1A6001F0DCF8386800F006
:103DA0007BF8054B1B68002BD2D10837BD4680BD80
:103DB000B01A0020DC1A0020C41A002080B582B09E
:103DC00000AF7860134B1B687A685A60124B1B680F
:103DD0007A689A4209D2114B1A680E4B1B68043359
:103DE00010461946FEF76EFE10E00D4B1A68094B9F
:103DF0001B68043310461946FEF764FE094B1B6826
:103E00007A689A4202D2074B7A681A600837BD4630
:103E100080BD00BF041A0020E01A0020981A00207C
:103E2000941A0020FC1A002080B584B000AF03462D
:103E30003960FB803B68002B06D1FB889B0018464D
:103E4000FDF76AFD034600E03B68BB60BB68002BE2
:103E50000ED05020FDF760FDF860FB68002B03D00A
:103E6000FB68BA681A6305E0B868FDF7E1FD01E098
:103E70000023FB60FB68002B08D0FB681A6BFB88F3
:103E80009B001046A5211A460EF02EFAFB68184634
:103E90001037BD4680BD00BF80B582B000AF7860EE
:103EA0007B681B6B1846FDF7C3FD7868FDF7C0FD06
:103EB0000837BD4680BD00BF80B483B000AF0E4B55
:103EC0001B681B68002B01D1012300E00023002B9D
:103ED00004D00A4B4FF0FF321A6008E0064B1B6813
:103EE000DB68DB687B607B685A68044B1A600C37C0
:103EF000BD465DF8047B7047941A0020FC1A002030
:103F000080B483B000AF054B1B687B607B681846AC
:103F10000C37BD465DF8047B704700BF041A0020D3
:103F200080B483B000AF0B4B1B68002B02D1012380
:103F30007B6008E0084B1B68002B02D102237B60EA
:103F400001E000237B607B6818460C37BD465DF8B6
:103F5000047B7047E81A0020001B002080B584B065
:103F600000AF78607B68FB607B68002B62D0FB68E9
:103F7000DA6A324B1B68DB6A9A425BD2FB689B6948
:103F8000002B06DB2D4B1B68DB6AC3F10502FB68C7
:103F90009A61FB685969FB68DA6A13469B0013440F
:103FA0009B00274A1344994201D1012300E00023DA
:103FB000002B3AD0FB6804331846FEF7BBFD0346DE
:103FC000002B15D1FB68DA6A1D4913469B00134488
:103FD0009B000B441B68002B0AD1FB68DB6A0122A3
:103FE00002FA03F3DA43174B1B681A40154B1A60A9
:103FF000124B1B68DA6AFB68DA62FB68DB6A012233
:104000009A40104B1B681A430E4B1A60FB68DA6A21
:1040100013469B0013449B00094A1A44FB6804336F
:1040200010461946FEF72AFD04E0044B1B68DA6AC5
:10403000FB68DA621037BD4680BD00BF041A00205D
:10404000081A0020E41A002080B584B000AF786020
:104050007B68BB600023FB607B68002B5ED0324B2B
:104060001B68BA689A4202D000F08CFFFEE7BB687A
:104070005B6C002B02D100F085FFFEE7BB685B6C38
:104080005A1EBB685A64BB68DA6ABB681B6C9A42EA
:1040900044D0BB685B6C002B40D1BB68043318462E
:1040A000FEF748FD0346002B15D1BB68DA6A1F49AD
:1040B00013469B0013449B000B441B68002B0AD142
:1040C000BB68DB6A012202FA03F3DA43184B1B6870
:1040D0001A40174B1A60BB681A6CBB68DA62BB687F
:1040E000DB6AC3F10502BB689A61BB68DB6A012227
:1040F0009A400F4B1B681A430D4B1A60BB68DA6A73
:1041000013469B0013449B00084A1A44BB680433BF
:1041100010461946FEF7B2FC0123FB60FB68184607
:104120001037BD4680BD00BF041A0020081A0020C9
:10413000E41A002080B483B000AF094B1B689B6970
:104140007B60074B1B68064A1268D26AC2F10502FF
:104150009A617B6818460C37BD465DF8047B704752
:10416000041A002080B400AF074B1B68002B04D05A
:10417000054B1B685A6C01325A64034B1B68184686
:10418000BD465DF8047B7047041A002080B584B0FA
:1041900000AF7860396000F0BFFE2E4B1B689B6C4F
:1041A000002B32D12B4B1B68012283F84C203B683B
:1041B000002B2AD0274B1B6804331846FEF7BAFCA5
:1041C0000346002B0BD1234B1B68DB6A012202FA4A
:1041D00003F3DA43204B1B681A401F4B1A603B68FD
:1041E000B3F1FF3F07D11B4B1B6804331B48194633
:1041F000FEF744FC07E01A4B1A683B681344FB6067
:10420000F868FFF7DBFD00F077FE00F0A3FE00F09A
:1042100083FE104B1B689B6CBB60BB68002B0CD0F3
:104220007B68002B04D00B4B1B6800229A6404E0CF
:10423000084B1B689A6C013A9A64064B1B68002273
:1042400083F84C2000F086FEBB6818461037BD4648
:1042500080BD00BF041A0020E41A0020C81A002004
:10426000E01A002080B586B000AFF860B9607A60CF
:104270003B6000F051FE364B1B6893F84C30DBB2CC
:10428000022B39D0324B1B68996CFA68D2430A4032
:104290009A642F4B1B68012283F84C203B68002B4B
:1042A0002AD02B4B1B6804331846FEF743FC034609
:1042B000002B0BD1264B1B68DB6A012202FA03F3A9
:1042C000DA43244B1B681A40224B1A603B68B3F157
:1042D000FF3F07D11E4B1B6804331F481946FEF7EA
:1042E000CDFB07E01D4B1A683B6813443B613869FE
:1042F000FFF764FD00F000FE00F02CFE00F00CFE65
:104300007B68002B04D0124B1B689A6C7B681A6088
:104310000F4B1B6893F84C30DBB2012B02D100230A
:104320007B6108E00A4B1B68996CBA68D2430A406B
:104330009A6401237B61064B1B68002283F84C20A2
:1043400000F008FE7B6918461837BD4680BD00BFE7
:10435000041A0020E41A0020C81A0020E01A0020E5
:1043600080B588B000AFF860B9603B601346FB7160
:104370000123FB61FB68002B02D100F003FEFEE786
:10438000FB68BB6100F0C8FD3B68002B03D0BB6934
:104390009A6C3B681A60BB6993F84C30FB75BB693B
:1043A000022283F84C20FB79042B28D801A252F872
:1043B00023F000BFFF430000C9430000D7430000C3
:1043C000E3430000EB430000BB699A6CBB681A43EF
:1043D000BB699A6413E0BB699B6C5A1CBB699A6405
:1043E0000DE0BB69BA689A6409E0FB7D022B03D03B
:1043F000BB69BA689A6401E00023FB6100BFFB7DE2
:10440000012B2BD1BB6904331846FEF793FBBB6924
:10441000DB6A01229A40154B1B681A43134B1A6042
:10442000BB69DA6A13469B0013449B00104A1A4486
:10443000BB69043310461946FEF720FBBB699B6A33
:10444000002B02D000F09EFDFEE7BB69DA6A094B43
:104450001B68DB6A9A4201D900F04EFD00F07AFD3C
:10446000FB6918462037BD4680BD00BFE41A002016
:10447000081A0020041A002080B588B000AFF86048
:10448000B9603B601346FB710123FB61FB68002BA5
:1044900002D100F077FDFEE700F0CAFDFB68BB61CA
:1044A00000F070FD78613B68002B03D0BB699A6C0B
:1044B0003B681A60BB6993F84C30FB74BB690222FD
:1044C00083F84C20FB79042B27D801A252F823F063
:1044D0001B450000E5440000F3440000FF440000D9
:1044E00007450000BB699A6CBB681A43BB699A64B4
:1044F00013E0BB699B6C5A1CBB699A640DE0BB69F5
:10450000BA689A6409E0FB7C022B03D0BB69BA68E5
:104510009A6401E00023FB6100BFFB7C012B3AD1D0
:10452000BB699B6A002B02D000F02CFDFEE71E4BFE
:104530001B68002B1CD1BB6904331846FEF7FAFA3E
:10454000BB69DB6A01229A40184B1B681A43174B60
:104550001A60BB69DA6A13469B0013449B00144A35
:104560001A44BB69043310461946FEF787FA05E082
:10457000BB6918330F481946FEF780FABB69DA6A3F
:104580000D4B1B68DB6A9A4205D9BB6A002B02D02F
:10459000BB6A01221A60786900F0FEFCFB691846CC
:1045A0002037BD4680BD00BF001B0020E41A00205C
:1045B000081A00209C1A0020041A002080B586B03A
:1045C00000AF786039607B68002B02D100F0DAFC24
:1045D000FEE700F02DFD7B687B6100F0D3FC3861C5
:1045E0007B6993F84C30FB737B69022283F84C2083
:1045F0007B699B6C5A1C7B699A64FB7B012B3AD1CB
:104600007B699B6A002B02D000F0BCFCFEE71D4BCF
:104610001B68002B1CD17B6904331846FEF78AFA0D
:104620007B69DB6A01229A40174B1B681A43164BC1
:104630001A607B69DA6A13469B0013449B00134A95
:104640001A447B69043310461946FEF717FA05E051
:104650007B6918330E481946FEF710FA7B69DA6A4F
:104660000C4B1B68DB6A9A4205D93B68002B02D0D1
:104670003B6801221A60386900F08EFC1837BD468D
:1046800080BD00BF001B0020E41A0020081A002093
:104690009C1A0020041A002080B584B000AF786016
:1046A0007B68BB60BB68002B02D10E4B1B6800E02F
:1046B000BB68BB6000F030FCBB6893F84C30DBB2E9
:1046C000022B06D1BB68002283F84C200123FB603B
:1046D00001E00023FB6000F03DFCFB68184610374A
:1046E000BD4680BD041A002080B586B004AF00230B
:1046F0007B6000F0AFFA0F4B1B68002B0ED002233B
:1047000000930023019300230293002303930A489C
:104710000A49B4220023FEF737FA78607B68002B41
:1047200002D100F02FFCFEE77B6818460837BD4633
:1047300080BD00BF341B0020D94800004076010036
:1047400080B586B000AFF860B9607A603B60BB6846
:10475000002B02D100237B611CE02820FDF7DCF850
:1047600078617B69002B15D000F074FA7B69FA68D8
:104770001A607B69BA689A617B697A68DA617B69D9
:104780003A681A627B693A6A5A627B69043318464E
:10479000FEF768F9BB68002B02D100F0F3FBFEE7DF
:1047A0007B6918461837BD4680BD00BF80B588B00C
:1047B00000AFF860B9607A603B600023FB61FB6882
:1047C000002B02D100F0DEFBFEE71D4B1B68002B27
:1047D00030D0BB683B617B687B61FB68BB61BB68B9
:1047E000052B1CDCFFF79CFB0346022B0BD1144B63
:1047F0001A6807F1100310461946BA6A0023FDF73C
:10480000F5FBF86116E00E4B1A6807F1100310462D
:10481000194600220023FDF7E9FBF8610AE0084B86
:104820001A6807F11003104619463A680023FDF78D
:10483000A3FCF861FB6918462037BD4680BD00BF68
:10484000341B002080B584B000AF78607B68FB60CB
:104850007B68002B02D100F095FBFEE7FB681B682C
:1048600018461037BD4680BD80B586B002AF78606F
:104870003960184B1B68DB68DB68FB60FB6804333E
:104880001846FEF757F9FB68DB69012B1BD1FB6863
:104890009A697B681344F86819463A687B6800F0A7
:1048A000B7F80346012B0ED100230093F8680021CE
:1048B0007A680023FFF77AFFB860BB68002B02D14B
:1048C00000F060FBFEE7FB685B6AF868984710370A
:1048D000BD4680BD2C1B002080B584B000AF786041
:1048E00007F10803184600F04FF8F860BB68F86855
:1048F000194600F003F800F0CDF8F1E780B584B078
:1049000000AF78603960FEF787FD07F108031846AD
:1049100000F05EF8F860BB68002B2BD13B68002BE1
:104920000AD17A68FB689A4206D8FEF783FD786858
:10493000F968FFF799FF1FE03B68002B08D0104B88
:104940001B681B68002B14BF00230123DBB23B60F4
:104950000C4B1A687968FB68CB1A104619463A68FE
:10496000FEF732F8FEF766FD0346002B04D100F097
:10497000C3FA01E0FEF75EFD1037BD4680BD00BF03
:10498000301B0020341B002080B485B000AF78605D
:104990000E4B1B681B68002B14BF00230123DBB2E6
:1049A0001A467B681A607B681B68002B05D1074B91
:1049B0001B68DB681B68FB6001E00023FB60FB6891
:1049C00018461437BD465DF8047B70472C1B002049
:1049D00080B584B000AF7860FEF7B0FDF8600B4B97
:1049E0001B68FA689A4205D200F0DCF87B68012265
:1049F0001A6002E07B6800221A60044BFA681A60B1
:104A0000FB6818461037BD4680BD00BF381B00202C
:104A100080B586B000AFF860B9607A603B60002373
:104A20007B61FB68BA685A60FB68FA681A61BA6809
:104A30007B689A4212D87A683B68D21AFB689B69F5
:104A40009A4202D301237B611BE0104B1A68FB687A
:104A5000043310461946FEF735F812E07A683B68D1
:104A60009A4206D2BA683B689A4202D301237B611C
:104A700007E0074B1A68FB68043310461946FEF737
:104A800021F87B6918461837BD4680BD301B0020D1
:104A90002C1B002080B58AB002AF70E0BB68002BF1
:104AA0006DDB3B69FB61FB695B69002B04D0FB6933
:104AB00004331846FEF73EF83B1D1846FFF788FF03
:104AC000B861BB68092B59D801A252F823F000BF86
:104AD000F94A0000F94A0000F94A00007D4B000045
:104AE0004B4B0000754B0000F94A0000F94A0000EA
:104AF0007D4B00004B4B0000FA68FB699B691A4430
:104B0000FB68F8691146BA69FFF782FF0346012B7B
:104B10001AD1FB695B6AF8699847FB69DB69012B6D
:104B200012D1FA68FB699B69134400220092F8696C
:104B300000211A460023FFF739FE78617B69002BBC
:104B400002D100F01FFAFEE719E0FA68FB699A61EA
:104B5000FB699B69002B02D100F014FAFEE7FB69A8
:104B60009A69BB691344F8691946BA69BB69FFF7CA
:104B70004FFF04E0F869FCF75BFF00E000BF084B63
:104B80001A6807F108031046194600220023FDF7B2
:104B9000BBFB0346002B81D12037BD4680BD00BF43
:104BA000341B002080B588B002AF3DE0274B1B6866
:104BB000DB681B687B61254B1B68DB68DB683B613E
:104BC0003B6904331846FDF7B5FF3B695B6A3869FA
:104BD00098473B69DB69012B26D13B699A697B6960
:104BE0001344FB60FA687B699A420ED93B69FA6804
:104BF0005A603B693A691A61144B1A683B6904337D
:104C000010461946FDF75EFF0EE000230093386959
:104C100000217A690023FFF7C9FDB860BB68002B4B
:104C200002D100F0AFF9FEE7084B1B681B68002BB0
:104C3000BCD1064B1B687B60054B1A68034B1A609E
:104C4000034B7A681A601837BD4680BD2C1B0020C4
:104C5000301B002080B500AF00F05EF9154B1B68DB
:104C6000002B24D11448FDF7DDFE1448FDF7DAFED1
:104C7000134B114A1A60134B104A1A600A200C2178
:104C80000022FDF7A7F802460A4B1A60094B1B6881
:104C9000002B02D100F076F9FEE7064B1B68002BD3
:104CA00005D0044B1B6818460749FDF743FE00F08A
:104CB00051F980BD341B0020041B0020181B00206C
:104CC0002C1B0020301B00204876010080B584B0EA
:104CD00000AF78607B68FB607B68002B02D100F03E
:104CE00051F9FEE700F018F9FB685B69002B0CBF77
:104CF00000230123DBB2BB6000F02CF9BB6818462F
:104D00001037BD4680BD00BF80B584B000AF78606D
:104D10007B68FB607B68002B02D100F033F9FEE773
:104D200000F0FAF8FB681B6ABB6000F013F9BB687F
:104D300018461037BD4680BD80B584B000AF78609E
:104D400039607B68FB607B68002B02D100F01AF9A8
:104D5000FEE700F0E1F8FB683A681A6200F0FAF842
:104D60001037BD4680BD00BF80B485B000AFF8608D
:104D7000B9607A60FB68043BFB60FB684FF08072AF
:104D80001A60FB68043BFB60BA68FB681A60FB684A
:104D9000043BFB60094AFB681A60FB68143BFB603C
:104DA0007A68FB681A60FB68203BFB60FB6818466A
:104DB0001437BD465DF8047B704700BFC14D00004D
:104DC00080B500AF054B1B68B3F1FF3F02D000F088
:104DD000D9F8FEE700F0D6F8FEE700BF6C97FF1F9A
:104DE000074B19680868B0E8F00F80F30988BFF333
:104DF0006F8F4FF0000080F311884EF00D0E70475A
:104E0000041A0020A0480068006880F3088862B691
:104E100061B6BFF34F8FBFF36F8F00DF00BF00BFDE
:104E200080B584B000AF284BFB60FB681B78DBB219
:104E3000BB60FB68FF221A70FB681B78DBB2FB715A
:104E4000FB79DBB203F05003DAB2204B1A70204B2F
:104E500007221A6009E01E4B1B685A1E1C4B1A6081
:104E6000FB79DBB25B00DBB2FB71FB79DBB2DBB25F
:104E70005BB2002BEFDB164B1B681A02144B1A6057
:104E8000134B1B6803F4E062114B1A60BB68DAB283
:104E9000FB681A700F4B0F4A126842F470021A60D6
:104EA0000C4B0C4A126842F070421A6000F0AEF8E7
:104EB000094B00221A60FFF7A5FFFFF781FF0023CF
:104EC00018461037BD4680BD00E400E03C1B0020C2
:104ED000401B002020ED00E06C97FF1F80B500AF65
:104EE000044B1B68B3F57A7F02D000F04BF8FEE765
:104EF00080BD00BF6C97FF1F80B400AF054B4FF023
:104F000080521A60BFF34F8FBFF36F8FBD465DF8BD
:104F1000047B704704ED00E080B500AF00F032F88C
:104F20000A4B1B685A1C094B1A60BFF34F8FBFF323
:104F30006F8F064B1B68012B07D1054B1B68DBB23B
:104F4000002B02D000F01EF8FEE780BD6C97FF1F1B
:104F500004ED00E080B500AF094B1B68002B02D1C7
:104F600000F010F8FEE7064B1B685A1E044B1A604F
:104F7000034B1B68002B02D1002000F00DF880BD10
:104F80006C97FF1FEFF311804FF0500181F31188F0
:104F900070470023184600BF80F31188704700BF98
:104FA000EFF30980BFF36F8F0D4B1A6820E9F00F04
:104FB00010602DE908404FF0500080F31188FEF793
:104FC000A1FB4FF0000080F31188BDE8084019688C
:104FD0000868B0E8F00F80F30988BFF36F8F70475F
:104FE000041A002080B500AFFFF7CCFFFEF7D4FA1B
:104FF0000346002B03D0044B4FF080521A60002070
:10500000FFF7CAFF80BD00BF04ED00E080B400AF31
:10501000044B054A1A60054B07221A60BD465DF82D
:10502000047B704714E000E0FF76010010E000E030
:1050300080B582B000AFEFF305837B607B680F2BF8
:105040000CD90D4A7B6813441B78FB700B4B1B7803
:10505000FA789A4202D2FFF795FFFEE7084B1B68E9
:1050600003F4E062074B1B689A4202D9FFF78AFFFC
:10507000FEE70837BD4680BDF0E300E03C1B0020A2
:105080000CED00E0401B002008ED00E080B584B08E
:1050900000AF78606348012103F022FB624B624A53
:1050A000126842F480521A60604B80221A7000230A
:1050B000FB8106E05E4BFA891A80FB8908339BB2BC
:1050C000FB81B7F90E30B3F5006FF3DB594B1B686A
:1050D00003F48003002B18D0574B1A6848F6A273CC
:1050E000134048F6A27293420FD1544B1A6840F213
:1050F0003F439A4209D1524B1B68012B05D1514BBA
:105100001A6840F201139A4201D0012300E0002303
:10511000002B17D0474B474A126842F480021A60AE
:10512000474B01221A60454B40F23F421A60424B06
:1051300048F6A3721A60404B434A1A60414B40F252
:1051400001121A60374B1B681A6800213F4A0A4354
:105150001A60344B1B68002242F002021A710022CE
:105160005A71304B1B68002242F001029A710022F2
:1051700042F00102DA712B4B1B68002242F002025E
:105180001A7200225A7200229A720022DA72254B99
:105190001B682F4ADA60234B1A681369002343F017
:1051A000804343F44C2313611E4B1B6800221A7585
:1051B00000225A751B4B1B684FF4807291B2DA8A39
:1051C00000220A43DA82174B1B6800221A7600225B
:1051D0005A7600229A760022DA76124B1B684FF438
:1051E000807291B2DA8B00220A43DA830D4B1B687E
:1051F0009A8B002242F006029A830A48302100F07E
:1052000049F903F05DFE03461A46124B1A70054831
:1052100000F094F90348104900F05CF91037BD46DE
:1052200080BD00BF501B00202C80044021C00C40DA
:1052300000C00C403C800440006003400460034018
:105240000C60034010600340A28F01000092FF1F1A
:1052500000FEFFFF4C1B00200D53000080B483B004
:1052600000AF786039603B68022B08D10A4B0A4ACC
:105270001278D2B222F04002D2B21A7007E0064B86
:10528000054A1278D2B242F04002D2B21A700C37FC
:10529000BD465DF8047B704721C00C4080B584B0EA
:1052A00000AF78607B681846002103F075FD034667
:1052B000FB60FB68002B21D072B6124B1B68002BE1
:1052C00004D1104BFA681A6062B617E00E4B1B68E7
:1052D000002B04D10C4BFA681A6062B60EE0094B41
:1052E0001B68BB60084B1A68064B1A60064BFA68CD
:1052F0001A6062B6B86803F0E1FCFFE71037BD46FC
:1053000080BD00BF441B0020481B002080B586B034
:1053100000AF284B1B681B68BB60264800F0FEF8F6
:105320004FF48072244B1A44BB689A4204D9234B31
:10533000FB60234B3B6103E01F4BFB601F4B3B615A
:10534000204B1B687B607B68002B1FD07B6804337D
:105350007B61FA68931CFB607B69991C79611B88EF
:105360001BB203F5FF437F331B119BB21380FA6816
:105370003B699A42EDD3786803F0A0FC124B1A689F
:10538000104B1A60104B00221A6009E0FB689A1C4F
:10539000FA6040F2FF721A80FA683B699A42F5D3CC
:1053A0000A4B1B78002B01D000F03AF81837BD46A5
:1053B00080BD00BF501B00200092FF1F0093FF1F05
:1053C0000094FF1F441B0020481B00204C1B0020A2
:1053D00080B582B000AF786039607B68012B0DD159
:1053E0003A684FF6FF739A4208D10648002100F050
:1053F0002FF804480449054A04F068F90837BD4607
:1054000080BD00BF501B00207D5400006097FF1F2F
:1054100080B500AF01204FF6FF71FFF7D9FF80BDC7
:1054200080B400AF034B4FF080421A60BD465DF878
:10543000047B704708E200E080B483B000AF78607E
:105440007B6818460C37BD465DF8047B704700BF8B
:1054500080B582B000AF78600B46FB707B68184661
:10546000FFF7EAFFFB78002B03D07868002103F0F8
:1054700037F97B6818460837BD4680BD80B582B0D5
:1054800000AF7860786803F0F5F97B681846083754
:10549000BD4680BD80B485B000AF78600B46FB7020
:1054A0007B681B7903F1804303F50433FB60FB68E1
:1054B00000221A70FB7803F03F03DBB263F07F0336
:1054C000DBB2DAB2FB681A701437BD465DF8047BB4
:1054D000704700BF80B483B000AF786039607B68EC
:1054E0001B7903F110020C4B396843F822107B68DA
:1054F0001B795B119B0003F1604303F561437A68FC
:10550000127902F01F02012101FA02F21A600C372F
:10551000BD465DF8047B70470090FF1F80B483B0E8
:1055200000AF7860044B7A6812791A700C37BD4668
:105530005DF8047B704700BF1F80004080B483B0DB
:1055400000AF7860044B7A6812791A700C37BD4648
:105550005DF8047B704700BF1B800040FFFFFFFF2A
:10556000B0B58EB000AFF860B9607A607B68002B90
:1055700000D193E0FB681833FB62FB6A9B68002B49
:1055800000F08480FB6A1B683B6300237B6376E04A
:105590003B6B1B0EBB62464BBA6A33F812301BB230
:1055A0007B62BB6A5A1C424B33F812301BB23B621F
:1055B0003B6B1B0A9BB2FB613B6AFA6902FB03F37C
:1055C0003B62FB69C3F57F43FF337A6A02FB03F357
:1055D0007B627A6A3B6AD418FB682C33184600F069
:1055E0008BF8034618460AF00DFA02460B461046A1
:1055F00019464FF000022F4B0AF058FA02460B46AC
:10560000104619460AF0ECFC0346BC617B61BB699D
:105610007A6953FB02F33B613B699AB279687B6B11
:105620005B000B449A80FB6A5B6818460AF0C8F975
:1056300004460D46FB685B6A18460AF0E3F9024629
:105640000B461046194618A3D3E900230AF02EFA98
:1056500002460B46204629460AF074F802460B46DD
:10566000104619460AF0E4FC0246FB6A5A60FB6ADF
:105670005B683A6B13443B637B6B01337B637B6BEF
:105680007F2B85D9FB6A3A6B1A6007E0FB6A1A68C0
:10569000FB6A5B68DB011A44FB6A1A603837BD4657
:1056A000B0BD00BFAFF300805202FF7889C4F7405D
:1056B000E07601000000F04080B584B000AF786073
:1056C00003F076FA0346FB60FB68002B0ED0786887
:1056D0000021FA68FFF744FF7B681846F96800224A
:1056E00003F026FBF86803F0E9FA00BF1037BD4667
:1056F00080BD00BFAFF3008080B582B000AF78609E
:105700007B681A687B685B68104619460AF006FDDC
:1057100003461A467B681A607B681B6818464FF080
:1057200000010AF0A1FF0346002B03D07B684FF075
:1057300000021A607B681B6818464FF07E510AF021
:10574000B1FF0346002B03D07B684FF07E521A60F6
:105750007B681B6818460837BD4680BD80B400AF23
:10576000034B0F221A70BD465DF8047B704700BFE3
:10577000C020074080B483B000AF78603960184B18
:105780001B7843F00203DBB2164ADB0013447A684D
:105790005A60134B1B7843F00203DBB21A46124BDC
:1057A0001B78002B01D0C82300E088233968090446
:1057B00019430C4B43F832100B4B1B7883F0010359
:1057C000DAB2094B1A70064B1B7883F00103DAB288
:1057D000034B1A700C37BD465DF8047B704700BF61
:1057E000321C00200080FF1F331C002080B58CB0CD
:1057F00000AF0023FB620023BB62AA4B1B8840F270
:10580000816293421BDCB3F5D06F80F2C081B3F5A7
:10581000817F00F07E81B3F5817F06DC802B00F074
:105820002F81822B00F03781E7E140F20232934270
:1058300000F08E81B3F5A06F00F0E281DDE142F26D
:105840002102934200F0248242F22102934207DCBB
:10585000B3F5086F00F00A81B3F5106F0BD0CCE1FF
:1058600042F22122934200F0BE8142F22132934261
:1058700000F0C881C1E18B4B5B88DAB28A4B1A70A9
:105880008A4BFB618A4BBB6104237B6113E0894B2C
:105890007A6953F8323003F08003002B08D0854A30
:1058A0007B69DB0013445B68083B184600F0C0FED0
:1058B0007B6901337B617B69132BE8DD00237B610E
:1058C0005CE07D4B7A6953F822303B6107E03B692D
:1058D0005B68FB60386900F0ABFEFB683B613B69CD
:1058E000002BF4D1744B7A69002143F82210734BDA
:1058F0007A69002143F82210714B7A6953F82230FB
:105900003B6107E03B695B68FB60386900F090FE33
:10591000FB683B613B69002BF4D1694B7A6900213C
:1059200043F82210674B7A69002143F82210664B36
:105930007A69002123F81210644A7B6913441B78AA
:10594000023B032B16D801A252F823F05D59000048
:10595000695900005D590000695900005B4A7B6984
:10596000134400221A7006E0584A7B69134401224E
:105970001A7000E000BF7B6901337B617B69032BF8
:105980009FDD534B00221A7001237B616AE0BB69E3
:105990005A1CBA611B78FB72FB69FA7A1A70FB69B0
:1059A0000433FB61FB7A03F00803002B47D000F0BF
:1059B00007FE78607B68002B0ED07B699B007A68BD
:1059C00008323C49DB000B445A607B699A00394B32
:1059D000404943F832100BE07B699A00354B0021B7
:1059E00043F832103A4B1B780133DAB2384B1A7055
:1059F00000F0E6FD78607B68002B12D07B699B008D
:105A000043F001037A6808322A49DB000B445A60EC
:105A10007B699B0043F00102264B2F4943F832106B
:105A20000DE07B699B0043F00102224B002143F80B
:105A30003210274B1B780133DAB2254B1A707B6981
:105A40009B0043F002021B4B002143F832107B699C
:105A50009B0043F00302174B002143F832107B698F
:105A600001337B617B69042B91DDCCE00E4B1B780D
:105A7000DAB21A4B1A700123BB62184BFB62C2E008
:105A8000164B00221A70154B00225A700223BB627B
:105A9000124BFB62B7E0034B9B88042B20D9FFF726
:105AA0005DFEF6E0A41B0020351C0020C42007404A
:105AB0003C7B01000080FF1F581B0020681B00205A
:105AC000781B0020881B0020981B0020A01B0020B2
:105AD000341C002088004000C8004000381C002012
