:1000000000800020BD010000691500006915000096
:10001000691500006915000069150000410C000019
:10002000410C0000410C0000410C0000E9470000B9
:1000300069150000410C0000A94900007515000079
:1000400069150000691500006915000069150000B8
:1000500069150000691500006915000069150000A8
:100060006915000069150000691500006915000098
:100070006915000069150000691500006915000088
:100080006915000069150000691500006915000078
:100090006915000069150000691500006915000068
:1000A0006915000069150000691500006915000058
:1000B0006915000069150000691500006915000048
:1000C0006915000069150000691500006915000038
:1000D0006915000069150000691500006915000028
:1000E0006915000069150000691500006915000018
:1000F0006915000069150000691500006915000008
:1001000069150000691500006915000069150000F7
:1001100069150000691500006915000069150000E7
:1001200069150000710600006915000069150000DE
:1001300069150000691500006915000069150000C7
:1001400069150000691500006915000069150000B7
:1001500069150000691500006915000069150000A7
:1001600069150000F55A00006915000069150000C6
:100170006915000069150000691500006915000087
:100180006915000069150000691500006915000077
:100190006915000069150000691500006915000067
:1001A0006915000069150000691500006915000057
:1001B0006915000069150000A188000080B584B0B1
:1001C00000AF694BFB60694BBB60694B4CF220523E
:1001D0001A80674B4DF628121A80664B10221A803F
:1001E00001F0DEF9644B4FF010621A60634B644A11
:1001F0001A60644B644A1A60644B1B6803F4807392
:10020000002B06D1624B00221A60604B4FF4A852BB
:100210001A60604B1B78DBB203F00803002B08D098
:100220005C4B5C4A1278D2B242F00802D2B21A7029
:1002300008E007E0BB681A1DBA60FA68111DF96092
:1002400012681A60BA68544B9A42F3D3534BBB609E
:1002500004E0BB681A1DBA6000221A60BA68504BED
:100260009A42F6D300237B600AE04E4B7A6853F83B
:1002700022104D4B7A6843F822107B6801337B6073
:100280007B686E2BF1D900237B6009E07B6803F16A
:10029000604303F5644380221A707B6801337B60FE
:1002A0007B685E2BF2D9414B3F4A1A60404B0A22D1
:1002B0001A70404B24221A703F4BA0221A7000BFC4
:1002C0003E4B1B78DBB203F00203002BF8D000BFDB
:1002D0003A4B1B78DBB203F01003002BF8D100BFC0
:1002E000364B1B78DBB203F00C03082BF8D1344BF0
:1002F00003221A70334B40221A7000BF2F4B1B7819
:10030000DBB203F02003002BF8D000BF2B4B1B788F
:10031000DBB203F04003002BF8D02B4B2B4A1A60C2
:10032000254B20221A7000BF244B1B78DBB203F050
:100330000C030C2BF8D1264B02221A60254B264ABF
:100340001A6062B606F084FC114B1B6803F00103CF
:10035000002B02D0214806F00FFC11F03BF801F011
:100360001FF901F0DBF9FEE7D48D01006097FF1F54
:100370000E200540002005403080044038800440B5
:10038000823F04003C8004400100002B10D0034059
:1003900014D0034002D007409CA0FF1FA0A0FF1F65
:1003A00004260020000000000090FF1F08ED00E080
:1003B000005006400140064000400640064006400E
:1003C000044006400540064044800440000003010C
:1003D0004880044004800440C010050000DD6850DF
:1003E000FFFFFFFFFFFFFFFFFFFFFFFFFFFFFFFF1D
:1003F000FFFFFFFFFFFFFFFFFFFFFFFFFFFFFFFF0D
:10040000FFFFFFFFFFFFFFFFFFFFFFFFFEFFFFFFFD
:1004100010B5054C237833B9044B13B10448AFF33E
:1004200000800123237010BDA0A0FF1F000000006A
:100430005489010008B5064B1BB106480649AFF3C5
:1004400000800648036813B1054B03B1984708BD07
:100450000000000054890100A4A0FF1F9CA0FF1F02
:100460000000000080B483B000AF314B80221A60DE
:1004700000BF2F4B1B6803F08003002B0CBF002331
:100480000123DBB2002BF4D12A4B1B689AB22A4B12
:100490001B689BB213449AB2284B1B689BB213444F
:1004A0009AB2274B1B689BB213449AB2254B1B6828
:1004B0009BB213449AB2244B1B689BB21344FB803B
:1004C000FB885B089BB26FEA43436FEA5343FB80B0
:1004D0001E4BFA881A601E4B1B689AB21D4B1B6894
:1004E0009BB213449AB21C4B1B689BB213449AB242
:1004F0001A4B1B689BB213449AB2194B1B689BB2F0
:1005000013449AB2174B1B689BB21344FB80FB88C1
:100510005B089BB26FEA43436FEA5343FB80124B85
:10052000FA881A600C37BD465DF8047B704700BF3F
:1005300024B0034038B003403CB0034040B0034017
:1005400044B0034048B003404CB003402CB00340DB
:1005500058B003405CB0034060B0034064B0034057
:1005600068B003406CB0034030B0034080B483B047
:1005700000AF0346FB71FB7903F00103002B03D0AE
:10058000114B02221A6002E0104B02221A60FB7922
:1005900003F00203002B03D00D4B40221A6002E04F
:1005A0000C4B40221A60FB7903F00403002B03D0AC
:1005B000074B20221A6002E0064B20221A600C37FB
:1005C000BD465DF8047B704784F00F4088F00F4013
:1005D000C4F00F40C8F00F4080B500AF194B4FF486
:1005E000A2721A60184B184A126842F020021A6070
:1005F000164B4FF4A2721A60134B134A126842F062
:1006000040021A60124B4FF4A2721A60114B114A49
:10061000126842F002021A600F4B7D221A600F4BE3
:1006200010221A600E4B00221A600E4B04221A6030
:10063000FFF718FF0C4B48221A600C4B4FF000726A
:100640001A6080BD14C00440D4F00F4018C00440AC
:1006500004B0044094F00F4008B003400CB00340D5
:1006600020B0034024B0034000B0034004E100E0A8
:1006700080B582B000AF00F067FA03467B60224B82
:100680001B88043B032B23D801A252F823F000BFA0
:10069000AD060000A1060000B9060000C506000076
:1006A0001A4B1B689AB27B685A8012E0174B1B6882
:1006B0009AB27B689A800CE0144B1B689AB27B68F4
:1006C000DA8006E0114B1B689AB27B681A8100E061
:1006D00000BF0D4B1B885A1C0D4B1340002B03DA37
:1006E000013B63F0070301339AB2074B1A80064BB4
:1006F0001B88DBB21846FFF739FF064B48221A6009
:100700000837BD4680BD00BFBCA0FF1F10B003402E
:100710000700008000B0034080B588B004AF786067
:1007200000F012FA0346FB60FB685B881846FB6822
:100730009B881946FB68DB881A46FB681B8900907A
:10074000019102920393042004498022044B00F09B
:1007500005FA642002F0B0F8E2E700BF886E0100FD
:10076000986E010080B584B004AFFFF735FF124BDF
:100770001B68002B02D06FF0010319E002230093E5
:100780000D4B019300230293002303930B480C4964
:10079000B422002301F0FCFE0346012B0CBF002312
:1007A0000123DBB2002B02D04FF0FF3300E0002327
:1007B0001846BD4680BD00BFD0A0FF1F190700002E
:1007C000B46E010080B400AF1F4B4FF4A2721A60E8
:1007D0001E4B1E4A126842F020021A601C4B4FF456
:1007E000A2721A60194B194A126842F010021A607C
:1007F000184B4FF4A2721A60144B144A126842F05C
:1008000008021A60144B4FF4A2721A60134B134A79
:10081000126842F008021A60114B4FF4A2721A607B
:100820000E4B0E4A126842F004021A600D4B4FF450
:10083000A2721A60094B094A126842F010021A604B
:10084000BD465DF8047B704714B0044094F00F403F
:1008500010B004400CB004400CC00440D4F00F4071
:1008600008C0044010C0044080B582B000AF78607A
:10087000504B1B6803F08003002B19D14E4B5B7863
:10088000DBB25B0803F00F03DBB20133032B0CDC9C
:10089000494B5B78DBB25B0803F00F03DBB201333B
:1008A000DBB203F00F03DBB200E00323194618E0CC
:1008B000414B5B78DBB25B0803F00F03DBB2013B1B
:1008C000002B0CDB3C4B5B78DBB25B0803F00F03C7
:1008D000DBB2013BDBB203F00F03DBB200E000232D
:1008E0001946354A138861F34C231380324B5B78E9
:1008F000DBB25B0803F00F03DBB2002B14BF002355
:100900000123DBB2002B05D02B4A13886FF3082399
:10091000138018E0284B5B78DBB25B0803F00F0311
:10092000DBB2022BD4BF00230123DBB2002B0AD0A1
:10093000214A138843F4807313801F4A13880321CC
:1009400061F34C2313801C4B1B78DBB29B09DBB299
:100950005B00DAB2184B5B7803F00103DBB2DBB269
:100960001343DBB2DBB203F00303DAB2124B9201A2
:10097000197801F03F010A431A700F4B1B78DBB264
:100980009B09DBB2012B14BF00230123DBB2002B38
:100990000CD00A4B1B7883F00103DAB2074B1A70B4
:1009A000064B1B780020194600F064F80837BD4656
:1009B00080BD00BF90F00F40D8A0FF1FECA0FF1F2C
:1009C00080B400AF104B40F213121A600F4B0F4A65
:1009D000126822F080021A600D4B40F213121A6066
:1009E0000A4B0A4A126822F040021A60094B40F290
:1009F00013121A60084B084A126822F002021A60A9
:100A0000BD465DF8047B70471CB0044094F00F4075
:100A100018B0044004C00440D4F00F4090B583B037
:100A200002AFFFF7CFFEFFF7CBFF0F4B00930F484E
:100A30001E210122002303F087FB03461A460C4BBC
:100A40001A600B4B1C6802F07DFA034600220092EC
:100A5000204601211A46002303F0ACFB0023184670
:100A60000437BD4690BD00BF69080000B86E0100A4
:100A7000D4A0FF1F80B483B000AF02460B46FA71CA
:100A8000BB71FB79052B51D801A252F823F000BFAE
:100A9000A90A0000BF0A0000D50A0000EB0A000006
:100AA000010B0000170B0000BB79002B03D0224B79
:100AB00010221A603AE0214B10221A6036E0BB790E
:100AC000002B03D01C4B08221A602FE01B4B08227E
:100AD0001A602BE0BB79002B03D0194B08221A6057
:100AE00024E0184B08221A6020E0BB79002B03D0C9
:100AF000134B04221A6019E0124B04221A6015E00D
:100B0000BB79002B03D00E4B10221A600EE00D4B68
:100B100010221A600AE0BB79002B03D0064B20227A
:100B20001A6002E0054B20221A6000BF0C37BD4658
:100B30005DF8047B704700BF84F00F4088F00F40E1
:100B4000C4F00F40C8F00F4080B400AF024B18460D
:100B5000BD465DF8047B7047D8A0FF1F08B480B580
:100B600089B002AF0346B9607A60FB732F4B1B68F4
:100B70002F4840212F4A11F03BFB03467B617B69E4
:100B80002B48194605F0FCFBFB7B042B20D801A267
:100B900052F823F0A90B0000B10B0000B90B0000C4
:100BA000C10B0000C90B0000462005F0D9FB12E084
:100BB000452005F0D5FB0EE0572005F0D1FB0AE0FB
:100BC000492005F0CDFB06E0442005F0C9FB02E01A
:100BD0003F2005F0C5FB202005F0C2FB07F12803EC
:100BE0003B61134840217A6A3B6913F0B7FD034625
:100BF0007B617B690E48194605F0C2FB7B68009358
:100C00000B4840210C4ABB6811F0F2FA03467B61A5
:100C10007B690748194605F0B3FB0A2005F0A0FBE5
:100C20001C37BD46BDE8804001B07047801D0020E4
:100C3000F0A0FF1FC06E0100CC6E0100FFFFFFFFA0
:100C400080B584B002AF00233B601EF0040F0CBFE0
:100C5000EFF30883EFF309833B60374BFF221A70F1
:100C6000364BFF221A70364BFF221A70354B1B7819
:100C7000002B14BF00230123DBB21A46314B1A703C
:100C8000304B1B78002B0CBF00230123DBB2052067
:100C90001946FFF7EFFE2B4B1B78002B0CBF0023F0
:100CA0000123DBB200201946FFF7E4FE254B1B7839
:100CB000002B0CBF00230123DBB201201946FFF7F4
:100CC000D9FE204B1B78002B0CBF00230123DBB285
:100CD00002201946FFF7CEFE1A4B1B78002B0CBFE3
:100CE00000230123DBB203201946FFF7C3FE154B97
:100CF0001B78002B0CBF00230123DBB20420194614
:100D0000FFF7B8FE3B6818331A683B6814331B685A
:100D10000092019300200C493E220C4BFFF71EFF6E
:100D200000237B6002E07B6801337B607A68084BBC
:100D30009A42F8DD9AE700BF19ED00E020ED00E0EF
:100D400018ED00E040A2FF1FF46E0100046F0100E7
:100D50003F420F0080B582B000AF78600C4B1B683B
:100D6000002B14BF00230123DBB21A46084B1A6084
:100D7000074B1B68002B0CBF00230123DBB20520AF
:100D80001946FFF777FE4FF47A7001F095FDE5E71D
:100D900044A2FF1F80B584B000AF7860FFF7D4FE97
:100DA0000346FB60FB685B88DB089BB218460EF0CD
:100DB00029FF0346BB601C4B1B681846B9680FF03F
:100DC00009F90346002B06D11848B96800F07CF9F0
:100DD000154BBA681A60FB689B88DB0A9BB2DBB2D2
:100DE0001248194600F036FAFB68DB8818460EF008
:100DF000B7FA02460B461046194609A3D3E9002369
:100E00000EF03EFC02460B46104619460EF0F0FD71
:100E100003460648194600F037FA1037BD4680BD34
:100E2000000000000099B94048A2FF1F50A1FF1F19
:100E300090B585B004AFFFF7F1FD21480C2107F014
:100E400021FB2048204900F03FF91E484FF07E5119
:100E500000F0BAF91D4B1D4A126842F4E0221A60F4
:100E600002230093002301930023029300230393A2
:100E7000174818495A22002301F08AFBFFF772FC39
:100E8000154B0093154801210122002303F05CF962
:100E900003461A46124B1A60114B1C6802F052F8B6
:100EA000034600220092204601211A46002303F047
:100EB00081F901F06BFF002318460437BD4690BD51
:100EC0000082FF1F50A1FF1F0080084424ED00E0B6
:100ED000550D00001C6F0100950D0000206F0100F2
:100EE00030A1FF1F80B582B000AF786039607B68A9
:100EF000012B0FD13A684FF6FF739A420AD1074887
:100F000000F08CF8064800F0B9F806480449034A96
:100F100000F012F80837BD4680BD00BF34A1FF1FA6
:100F200050A1FF1F30A2FF1F80B500AF01204FF678
:100F3000FF71FFF7D7FF80BD80B584B000AFF860C8
:100F4000B9607A60FB68BA681A60FB687A685A60B0
:100F5000FB6800221A72FB6800225A72FB680022AA
:100F6000DA60F86807F03AFCFB6818461037BD46AF
:100F700080BD00BF80B487B000AFF8600B467A60D8
:100F8000FB72FB68234A1A60FB68FA7A5A72FB68A4
:100F90007A681A61FB6800221A72FB680022DA6024
:100FA00000237B6109E0FB681A697B699B0013449D
:100FB00000221A607B6901337B61FB685B7A1A4609
:100FC0007B699A42EFDC144B1B68002B03D1124B58
:100FD000FA681A600DE0104B1B683B6102E03B6948
:100FE0005B693B613B695B69002BF8D13B69FA683F
:100FF0005A61FB6800225A61FB6800229A80FB68F4
:101000000022DA80FB6818461C37BD465DF8047B79
:10101000704700BF506F0100B01D002080B582B046
:1010200000AF78607A687B681833104601211A4651
:10103000FFF7A0FF7B68054A1A60786803F02AFD75
:101040007B6818460837BD4680BD00BF906F010021
:1010500080B483B000AF78607B6800221A607B6840
:1010600000225A607B684FF480429A607B68184681
:101070000C37BD465DF8047B704700BFB0B582B049
:1010800000AF78607B68184600210022FFF772FFEE
:101090007B680C4A1A607B6818330F241D4604E0F5
:1010A0002846FFF7D5FF0C35013CB4F1FF3FF7D1DF
:1010B0007B68012283F8D8207B6818460837BD4634
:1010C000B0BD00BFD86F010080B584B000AF7860BC
:1010D000396038684FF000010EF086FF0346002BA0
:1010E00003D04FF000033B6010E038680EF04AF97F
:1010F00002460B46104619462DA3D3E900230EF0F5
:1011000025FC0346002B01D02D4B3B600023FB60E8
:1011100045E038680EF036F902460B46104619468F
:1011200025A3D3E900230EF081F902460B461046B1
:1011300019460EF03DFC01467868FA6813465B00DC
:1011400013449B000344183359607B68D3F8DC30A8
:10115000386819460EF0AAFD03463B6038684FF028
:1011600000010EF041FF0346002B02D04FF00003B8
:1011700011E038680EF006F902460B461046194693
:101180000BA3D3E900230EF0E1FB0346002B01D0B3
:101190000C4B00E03B683B60FB680133FB60FB6885
:1011A0000F2BB6DD1037BD4680BD00BFAFF300800A
:1011B000522CB7B4B48AD5405202FF7889C4F740A4
:1011C000A655AC46A655AC4780B584B000AF786054
:1011D000396038684FF000010EF006FF0346002B1F
:1011E00003D04FF000033B600AE038684FF07E51B7
:1011F0000EF018FF0346002B02D04FF07E533B60E9
:101200000023FB601EE038680EF0BCF802460B4677
:10121000104619464FF000020D4B0EF007F902463A
:101220000B46104619460EF09BFB01467868FA689B
:1012300013465B0013449B00034420331960FB6892
:101240000133FB60FB680F2BDDDD1037BD4680BD31
:101250000000B04080B483B000AF78600B46FB70F4
:10126000FB78002B02D10123FB7004E0FB78102BEC
:1012700001D91023FB707B68FA7883F8D8200C37EB
:10128000BD465DF8047B704780B582B000AF7860E2
:10129000396038684FF000010EF0A6FE0346002BBF
:1012A00003D04FF07E533B6008E0386807490EF0EA
:1012B000B9FE0346002B01D0044B3B607B683A68C3
:1012C000C3F8DC200837BD4680BD00BF00002041C8
:1012D00080B400AF4FF0FF331846BD465DF8047B85
:1012E000704700BF80B483B000AF786039604FF0C2
:1012F000FF3318460C37BD465DF8047B704700BFCE
:1013000080B400AF4FF0FF331846BD465DF8047B54
:10131000704700BF80B400AFBD465DF8047B7047E6
:1013200080B588B000AF786000237B6101F078FD64
:101330003D4B1B68002B04D100F0C8F83A4B01224A
:101340001A607B68002B0DD008237A6813447B60F9
:101350007B6803F00703002B04D07B6823F00703AE
:1013600008337B607B68002B57D07A6847F2F773AD
:101370009A4252D82D4BBB612C4B1B68FB6104E099
:10138000FB69BB61FB691B68FB61FB695A687B6891
:101390009A4203D2FB691B68002BF1D1FA69244BF6
:1013A0009A423AD0BB691A68082313447B61FB69EF
:1013B0001A68BB691A60FB695A687B68D21A0823ED
:1013C0005B009A4222D9FA697B681344FB60FB698F
:1013D0005A687B68D21AFB685A60FB697A685A605F
:1013E000FB685B68BB60114B3B6102E03B691B68BB
:1013F0003B613B691B685A68BB689A42F6D33B69FC
:101400001A68FB681A603B69FA681A60094B1A6827
:10141000FB695B68D21A074B1A6001F00FFD7B690C
:1014200018462037BD4680BD5C1A00204C1A0020AB
:10143000541A00206497FF1F80B586B000AF786013
:101440007B683B617B68002B27D008235B423A69AD
:1014500013443B613B69FB6001F0E2FCFB685B68A5
:10146000BB600F4B7B6102E07B691B687B617B6922
:101470001B685A68BB689A42F6D37B691A68FB6896
:101480001A607B69FA681A60FB685A68054B1B682A
:101490001A44044B1A6001F0D1FC1837BD4680BDD8
:1014A0004C1A00206497FF1F80B400AF034B1B68E9
:1014B0001846BD465DF8047B704700BF6497FF1F68
:1014C00080B400AFBD465DF8047B704780B483B044
:1014D00000AF0F4B23F007037B600E4B7A681A6056
:1014E0000C4B00225A600C4B47F2F8725A600A4BC0
:1014F00000221A607B683B603B6847F2F8725A60D2
:101500003B68054A1A600C37BD465DF8047B70479E
:1015100054A2FF1F4C1A0020541A002080B500AFBF
:10152000104B1B6803F48023002B01D004F0E2FA77
:101530000C4B1B6803F48063002B01D000F014F8FF
:10154000084B1B6803F40063002B01D000F00CF87B
:10155000044B1B6803F48053002B02D000F004F806
:10156000DEE7DDE73480044080B500AFFFF768FBBD
:1015700080BD00BF80B500AF034B1B685A1C024BF7
:101580001A6003F033FA80BD801D002080B582B060
:1015900000AF7860396003F0F9F9FFF751FBFEE71F
:1015A00080B400AFBD465DF8047B704780B485B061
:1015B00000AF7860074B1B68FB60064B1A687B68BE
:1015C0001A44044B1A60FB6818461437BD465DF890
:1015D000047B70476897FF1F80B485B000AFF86048
:1015E000B9607A60002318461437BD465DF8047B65
:1015F000704700BF80B483B000AF78604FF0FF3316
:1016000018460C37BD465DF8047B704780B483B044
:1016100000AF786039603B684FF400525A60002395
:1016200018460C37BD465DF8047B704780B483B024
:1016300000AF7860012318460C37BD465DF8047B87
:10164000704700BF80B485B000AFF860C7E90023E1
:101650004FF0FF3318461437BD465DF8047B7047E2
:1016600080B483B000AF7860FEE700BF80B400AF05
:10167000FEE700BF80B483B000AF78600123184656
:101680000C37BD465DF8047B704700BF80B483B063
:1016900000AF78600C37BD465DF8047B704700BF33
:1016A00080B487B000AF4FF480737B61EFF3138396
:1016B0003B613B69002B02D04FF0FF3325E0EFF395
:1016C0001083FB60FB68002B01D000231DE0EFF3CB
:1016D0000583BB60BB68002B0AD0BB680F2B02D808
:1016E00000237B6104E0BA680B4B13441B787B61D9
:1016F000EFF311837B607B68002B05D07A697B68F0
:101700009A4201D97B687B617B6918461C37BD46CC
:101710005DF8047B704700BFF0E300E080B500AFE8
:10172000FFF786FB0346184680BD00BF80B584B036
:1017300000AF786039607B68FB60FB68002B02D1EA
:1017400003F024F9FEE703F0EBF8FB681A68FB6886
:10175000DB6BF968096C01FB03F31A44FB685A6000
:10176000FB6800229A63FB681A68FB689A60FB6852
:101770001A68FB68DB6B013BF968096C01FB03F33A
:101780001A44FB68DA60FB684FF0FF325A64FB686A
:101790004FF0FF329A643B68002B0ED1FB681B6947
:1017A000002B14D0FB681033184601F009FE0346E5
:1017B000012B0CD103F0A4F809E0FB6810331846A4
:1017C00000F034FEFB682433184600F02FFE03F0CF
:1017D000C5F8012318461037BD4680BD80B588B0D6
:1017E00000AFF860B9601346FB710023BB61FB6872
:1017F000002B02D103F0CAF8FEE7BB68002B02D130
:101800000023FB6105E0FB68BA6802FB03F30133C8
:10181000FB61FB694C331846FFF782FD78617B69F9
:10182000002B17D0BB68002B03D17B697A691A6043
:1018300004E07B6903F14C027B691A607B69FA68FA
:10184000DA637B69BA681A6478690121FFF76EFF71
:101850007B69BB61BB69002B02D103F097F8FEE7FF
:10186000BB6918462037BD4680BD00BF80B584B037
:1018700000AF0346FB714C20FFF752FDF860FB6898
:10188000002B2CD0FB6800225A60FB6800221A60F3
:10189000FB6800229A60FB680022DA60FB68002285
:1018A0009A63FB680122DA63FB6800221A64FB6812
:1018B0004FF0FF325A64FB684FF0FF329A64FB68C6
:1018C0001033184600F0B2FDFB682433184600F0D0
:1018D000ADFDF86800210022002300F08BF8FB68C2
:1018E00018461037BD4680BD90B585B000AF786012
:1018F0007B68BB60BB68002B02D103F047F8FEE7B2
:10190000BB685C6802F000F803469C4211D1BB68DA
:10191000DB685A1EBB68DA60BB68DB68002B05D148
:10192000B86800210022002300F064F80123FB6066
:1019300001E00023FB60FB6818461437BD4690BDEC
:1019400090B585B000AF786039607B68BB60BB68DC
:10195000002B02D103F01AF8FEE7BB685C6801F0C7
:10196000D3FF03469C4207D1BB68DB685A1CBB68A7
:10197000DA600123FB600EE0B86800213A680023BA
:1019800000F0C6F9F860FB68012B04D1BB68DB6886
:101990005A1CBB68DA60FB6818461437BD4690BD18
:1019A00080B584B000AF786039607B68002B02D1CD
:1019B00002F0ECFFFEE73A687B689A4202D902F037
:1019C000E5FFFEE7786800210222FFF707FFF860D5
:1019D000FB68002B02D0FB683A689A63FB68002B17
:1019E00002D102F0D3FFFEE7FB6818461037BD4670
:1019F00080BD00BF80B58AB000AFF860B9607A6082
:101A00003B6000237B62FB683B623B6A002B02D198
:101A100002F0BCFFFEE7BB68002B03D13B6A1B6CE6
:101A2000002B01D1012300E00023002B02D102F0A2
:101A3000ADFFFEE73B68022B03D13B6ADB6B012B5A
:101A400001D1012300E00023002B02D102F09EFF10
:101A5000FEE701F069FF0346002B02D17B68002BF3
:101A600001D1012300E00023002B02D102F08EFF00
:101A7000FEE702F055FF3B6A9A6B3B6ADB6B9A42CA
:101A800002D33B68022B1DD1386AB9683A6800F06E
:101A900015FBF8613B6A5B6A002B0AD03B6A243372
:101AA000184601F08DFC0346012B07D102F028FFF8
:101AB00004E0FB69002B01D002F022FF02F04EFF90
:101AC000012359E07B68002B03D102F047FF00237C
:101AD00052E07B6A002B06D107F11403184601F08F
:101AE00021FD01237B6202F039FF01F099F902F038
:101AF00017FF3B6A5B6CB3F1FF3F02D13B6A0022E8
:101B00005A643B6A9B6CB3F1FF3F02D13B6A0022EF
:101B10009A6402F023FF07F114023B1D1046194698
:101B200001F01AFD0346002B1ED1386A00F0D4FBE9
:101B30000346002B12D03B6A03F110027B6810466B
:101B4000194601F05BFB386A00F04CFB01F076F9B6
:101B50000346002B0FD102F0D3FE0CE0386A00F0F0
:101B600041FB01F06BF984E7386A00F03BFB01F0C0
:101B700065F9002300E07CE718462837BD4680BDA4
:101B800080B588B000AFF860B9607A603B60FB68F0
:101B9000BB61BB69002B02D102F0F8FEFEE7BB6817
:101BA000002B03D1BB691B6C002B01D1012300E08A
:101BB0000023002B02D102F0E9FEFEE73B68022B76
:101BC00003D1BB69DB6B012B01D1012300E00023B2
:101BD000002B02D102F0DAFEFEE702F02DFF02F048
:101BE000D5FE7861BB699A6BBB69DB6B9A4202D305
:101BF0003B68022B24D1B869B9683A6800F05EFAF4
:101C0000BB699B6CB3F1FF3F12D1BB695B6A002BD0
:101C100013D0BB692433184601F0D2FB0346002BD6
:101C20000BD07B68002B08D07B6801221A6004E08F
:101C3000BB699B6C5A1CBB699A640123FB6101E080
:101C40000023FB61786902F0ABFEFB691846203780
:101C5000BD4680BD80B586B000AF786039607B68D6
:101C60003B613B69002B02D102F090FEFEE73B692D
:101C70001B6C002B02D002F089FEFEE73B691B685B
:101C8000002B03D13B695B68002B01D1012300E0ED
:101C90000023002B02D102F079FEFEE702F0CCFE19
:101CA00002F074FEF8603B699A6B3B69DB6B9A4209
:101CB00024D23B699B6B5A1C3B699A633B699B6CC2
:101CC000B3F1FF3F12D13B695B6A002B13D03B6934
:101CD0002433184601F074FB0346002B0BD03B68FD
:101CE000002B08D03B6801221A6004E03B699B6C22
:101CF0005A1C3B699A6401237B6101E000237B61EC
:101D0000F86802F04DFE7B6918461837BD4680BD65
:101D100080B58AB000AFF860B9607A603B6000239C
:101D20007B62FB683B623B6A002B02D102F02EFE15
:101D3000FEE7BB68002B03D13B6A1B6C002B01D173
:101D4000012300E00023002B02D102F01FFEFEE77A
:101D500001F0EAFD0346002B02D17B68002B01D184
:101D6000012300E00023002B02D102F00FFEFEE76A
:101D700002F0D6FD3B6A9B6B002B3BD03B6ADB68D5
:101D8000FB61386AB96800F007FA3B68002B1CD188
:101D90003B6A9B6B5A1E3B6A9A633B6A1B68002B2B
:101DA00004D101F0E3FE02463B6A5A603B6A1B69BC
:101DB000002B1BD03B6A1033184601F001FB034691
:101DC000012B13D102F09CFD10E03B6AFA69DA6046
:101DD0003B6A5B6A002B09D03B6A2433184601F04A
:101DE000EFFA0346002B01D002F08AFD02F0B6FDA7
:101DF000012366E07B68002B03D102F0AFFD0023D6
:101E00005FE07B6A002B06D107F11403184601F04E
:101E100089FB01237B6202F0A1FD01F001F802F0D1
:101E20007FFD3B6A5B6CB3F1FF3F02D13B6A00224E
:101E30005A643B6A9B6CB3F1FF3F02D13B6A0022BC
:101E40009A6402F08BFD07F114023B1D10461946FF
:101E500001F082FB0346002B2BD1386A00F00EFA0A
:101E60000346002B1FD03B6A1B68002B08D102F0F1
:101E700057FD3B6A5B68184601F074FD02F06EFD89
:101E80003B6A03F124027B681046194601F0B6F95B
:101E9000386A00F0A7F900F0D1FF0346002B0FD1FC
:101EA00002F02EFD0CE0386A00F09CF900F0C6FF4D
:101EB0005EE7386A00F096F900F0C0FF002300E00A
:101EC00056E718462837BD4680BD00BF80B588B0AC
:101ED00000AFF860B9607A60FB68BB61BB69002B3A
:101EE00002D102F053FDFEE7BB68002B03D1BB69B2
:101EF0001B6C002B01D1012300E00023002B02D139
:101F000002F044FDFEE702F097FD02F03FFD78612C
:101F1000BB699B6B002B28D0B869B96800F03CF90D
:101F2000BB699B6B5A1EBB699A63BB695B6CB3F15F
:101F3000FF3F12D1BB691B69002B13D0BB69103363
:101F4000184601F03DFA0346002B0BD07B68002BAE
:101F500008D07B6801221A6004E0BB695B6C5A1CE4
:101F6000BB695A640123FB6101E00023FB617869CE
:101F700002F016FDFB6918462037BD4680BD00BF44
:101F800080B586B000AF786039607B683B613B69A3
:101F9000002B02D102F0FAFCFEE73B68002B03D1D4
:101FA0003B691B6C002B01D1012300E00023002BB7
:101FB00002D102F0EBFCFEE73B691B6C002B02D167
:101FC00002F0E4FCFEE702F037FD02F0DFFCF8600F
:101FD0003B699B6B002B0CD03B69DB68BB603869AD
:101FE000396800F0D9F83B69BA68DA6001237B618F
:101FF00001E000237B61F86802F0D2FC7B6918469F
:102000001837BD4680BD00BF80B584B000AF786092
:102010007B68002B02D102F0B9FCFEE702F080FCE5
:102020007B689B6BFB6002F099FCFB6818461037DD
:10203000BD4680BD80B584B000AF78607B68FB6032
:10204000FB68002B02D102F0A1FCFEE702F068FC65
:10205000FB68DA6BFB689B6BD31ABB6002F07EFCFB
:10206000BB6818461037BD4680BD00BF80B584B040
:1020700000AF78607B68002B02D102F087FCFEE79E
:102080007B689B6BFB60FB6818461037BD4680BDC4
:1020900080B584B000AF78607B68FB60FB68002B84
:1020A00002D102F073FCFEE7F86800F06FF9F868FF
:1020B000FFF7C2F91037BD4680BD00BF80B586B0BE
:1020C00000AFF860B9607A6000237B61FB681B6C2D
:1020D000002B0DD1FB681B68002B52D1FB685B689D
:1020E000184601F0B5FC7861FB6800225A6048E0B0
:1020F0007B68002B1AD1FB689A68FB681B6C104642
:10210000B9681A460FF0B6FCFB689A68FB681B6C4E
:102110001A44FB689A60FB689A68FB685B689A429D
:102120002FD3FB681A68FB689A602AE0FB68DA68BC
:10213000FB681B6C1046B9681A460FF09BFCFB68E5
:10214000DA68FB681B6C5B421A44FB68DA60FB6868
:10215000DA68FB681B689A4207D2FB685A68FB681A
:102160001B6C5B421A44FB68DA607B68022B08D167
:10217000FB689B6B002B04D0FB689B6B5A1EFB68B3
:102180009A63FB689B6B5A1CFB689A637B691846D1
:102190001837BD4680BD00BF80B582B000AF786003
:1021A00039607B681B6C002B19D07B68DA687B6810
:1021B0001B6C1A447B68DA607B68DA687B685B6852
:1021C0009A4203D37B681A687B68DA607B68DA68B6
:1021D0007B681B6C386811461A460FF04BFC0837B9
:1021E000BD4680BD80B582B000AF786002F098FB3C
:1021F00014E07B685B6A002B0AD07B6824331846A6
:1022000001F0DEF80346002B03D001F0F5F900E001
:1022100008E07B689B6C5A1E7B689A647B689B6CA9
:10222000002BE6DC7B684FF0FF329A6402F096FBED
:1022300002F076FB14E07B681B69002B0FD07B68F3
:102240001033184601F0BCF80346002B01D001F012
:10225000D3F97B685B6C5A1E7B685A6400E003E02C
:102260007B685B6C002BE6DC7B684FF0FF325A64C6
:1022700002F074FB0837BD4680BD00BF80B584B056
:1022800000AF786002F04CFB7B689B6B002B02D1A7
:102290000123FB6001E00023FB6002F05FFBFB68B1
:1022A00018461037BD4680BD80B584B000AF786059
:1022B0007B68002B02D102F069FBFEE77B689B6B19
:1022C000002B02D10123FB6001E00023FB60FB68CF
:1022D00018461037BD4680BD80B584B000AF786029
:1022E00002F01EFB7B689A6B7B68DB6B9A4202D123
:1022F0000123FB6001E00023FB6002F02FFBFB6881
:1023000018461037BD4680BD80B584B000AF7860F8
:102310007B68002B02D102F039FBFEE77B689A6BE9
:102320007B68DB6B9A4202D10123FB6001E0002352
:10233000FB60FB6818461037BD4680BD80B485B091
:1023400000AF786039600023FB6014E00E4BFA6840
:1023500053F83230002B0BD10B4BFA68396843F835
:102360003210094AFB68DB0013447A685A6005E0C2
:10237000FB680133FB60FB68072BE7D91437BD46C8
:102380005DF8047B704700BF601A002080B485B000
:1023900000AF78600023FB6010E00C4AFB68DB00B4
:1023A00013445A687B689A4205D1084BFA680021A9
:1023B00043F8321005E0FB680133FB60FB68072B34
:1023C000EBD91437BD465DF8047B7047601A0020D6
:1023D00080B586B000AFF860B9607A60FB687B6159
:1023E00002F09EFA7B695B6CB3F1FF3F02D17B691F
:1023F00000225A647B699B6CB3F1FF3F02D17B6979
:1024000000229A6402F0AAFA7B699B6B002B06D12A
:102410007B6924331846B9687A6800F08BFF7869C5
:10242000FFF7E0FE1837BD4680BD00BF80B483B023
:1024300000AF78607B6803F108027B685A607B68B4
:102440004FF0FF329A607B6803F108027B68DA6024
:102450007B6803F108027B681A617B6800221A60BE
:102460000C37BD465DF8047B704700BF80B483B075
:1024700000AF78607B6800221A610C37BD465DF8BA
:10248000047B704780B485B000AF786039607B68AA
:102490005B68FB603B68FA685A60FB689A683B6857
:1024A0009A60FB689B683A685A60FB683A689A6071
:1024B0003B687A681A617B681B685A1C7B681A60E3
:1024C0001437BD465DF8047B704700BF80B485B00B
:1024D00000AF786039603B681B68BB60BB68B3F1D4
:1024E000FF3F03D17B681B69FB600CE07B6808330E
:1024F000FB6002E0FB685B68FB60FB685B681A6876
:10250000BB689A42F6D9FB685A683B685A603B68D8
:102510005B683A689A603B68FA689A60FB683A6858
:102520005A603B687A681A617B681B685A1C7B6832
:102530001A601437BD465DF8047B704780B485B0DF
:1025400000AF78607B681B69FB607B685B687A68BA
:1025500092689A607B689B687A6852685A60FB68E8
:102560005A687B689A4203D17B689A68FB685A6014
:102570007B6800221A61FB681B685A1EFB681A60A0
:10258000FB681B6818461437BD465DF8047B70472E
:1025900080B58AB002AFF860B9603B601346FB803B
:1025A000FB68002B02D102F0F1F9FEE7BB6A042BB5
:1025B00002D902F0EBF9FEE7FB881846396B01F00F
:1025C00037F9B861BB69002B6DD0BB691A6BFB880A
:1025D00003F18043013B9B0013447B617B6923F043
:1025E00007037B617B6903F00703002B02D002F035
:1025F000CDF9FEE7FB880093B869B968BA6A7B6BCE
:1026000001F016F87869F9683A6802F0B1F8024604
:10261000BB691A60FB6A002B02D0FB6ABA691A60B8
:1026200002F07EF92B4B1B685A1C2A4B1A602A4B6E
:102630001B68002B09D1284BBA691A60254B1B680F
:10264000012B0FD101F046F80CE0244B1B68002B46
:1026500008D1214B1B68DA6ABB6A9A4202D81E4B2A
:10266000BA691A601E4B1B685A1C1D4B1A60BB6965
:10267000DB6A01229A401B4B1B681A43194B1A60F4
:10268000BB69DA6A13469B0013449B00164A1A443E
:10269000BB69043310461946FFF7F4FE0123FB61C2
:1026A00002F05CF902E04FF0FF33FB61FB69012BA4
:1026B0000BD10A4B1B68002B07D0074B1B68DA6A4B
:1026C000BB6A9A4201D202F01BF9FB691846203717
:1026D000BD4680BD781B0020A01A0020841B00206E
:1026E000941B0020801B0020A41A002080B584B019
:1026F00000AF786002F014F97B68002B02D12D4BFB
:102700001B6800E07B68FB60FB6804331846FFF73A
:1027100015FF0346002B15D1FB68DA6A26491346DC
:102720009B0013449B000B441B68002B0AD1FB68E1
:10273000DB6A012202FA03F3DA43204B1B681A40DA
:102740001E4B1A60FB689B6A002B04D0FB68183391
:102750001846FFF7F3FEFB68043319481946FFF7E4
:1027600091FE184B1B685A1C164B1A60164B1B68BF
:102770005A1C154B1A6002F0F1F8144B1B68002B21
:1027800014D00C4B1B68FA689A4209D1104B1B6895
:10279000002B02D002F0FAF8FEE702F0B1F805E0F3
:1027A00002F0BEF801F08CF802F0D8F81037BD4600
:1027B00080BD00BFA01A0020A41A0020801B0020AA
:1027C0004C1B0020601B0020941B0020841B002059
:1027D0009C1B002080B586B000AF78603960002374
:1027E0007B617B68002B02D102F0D0F8FEE73B68EA
:1027F000002B02D102F0CAF8FEE72B4B1B68002B1E
:1028000002D002F0C3F8FEE700F00AFB274B1B687A
:102810003B617B681A683B681344FB607B681A68FD
:102820003B699A420BD97B681A68FB689A4211D9B6
:10283000FA683B699A420DD901237B610AE07B6803
:102840001A68FB689A4203D8FA683B699A4201D930
:1028500001237B617B68FA681A607B69002B17D0C3
:10286000134B1B6804331846FFF768FE0346002B22
:102870000BD10F4B1B68DB6A012202FA03F3DA4328
:102880000C4B1B681A400B4B1A60F86800F09AFF5B
:1028900000F0D4FAB860BB68002B01D102F030F828
:1028A0001837BD4680BD00BF9C1B00207C1B00204C
:1028B000A01A0020801B002080B584B000AF786093
:1028C0000023FB607B68002B28D0184B1B68002B73
:1028D00002D002F05BF8FEE700F0A2FA144B1A688F
:1028E0007B681344BB60134B1B6804331846FFF727
:1028F00025FE0346002B0BD10E4B1B68DB6A012221
:1029000002FA03F3DA430C4B1B681A400A4B1A60B5
:10291000B86800F057FF00F091FAF860FB68002BF0
:1029200001D101F0EDFF1037BD4680BD9C1B00209A
:102930007C1B0020A01A0020801B002080B584B0E2
:1029400000AF786001F0ECFF7B68002B02D1074BF1
:102950001B6800E07B68FB60FB68DB6ABB6001F022
:10296000FDFFBB6818461037BD4680BDA01A002089
:1029700080B586B000AF786002F05EF802F006F82D
:1029800078617B68002B02D1074B1B6800E07B68F5
:102990003B613B69DB6AFB60786902F001F8FB6828
:1029A00018461837BD4680BDA01A002080B586B0F5
:1029B00000AF7860396000237B613B68042B02D94B
:1029C00001F0E4FFFEE73B68042B01D904233B60E0
:1029D00001F0A6FF7B68002B02D1404B1B6800E092
:1029E0007B683B613B691B6CFB60FA683B689A4201
:1029F0006ED03A68FB689A420DD9384B1B683A6929
:102A00009A420FD0354B1B68DA6A3B689A4209D864
:102A100001237B6106E0314B1B683A699A4201D180
:102A200001237B613B69DB6ABB603B691A6C3B69D4
:102A3000DB6A9A4202D13B693A68DA623B693A68DA
:102A40001A643B699B69002B04DB3B68C3F10502F8
:102A50003B699A613B695969BA6813469B00134404
:102A60009B001F4A1344994201D1012300E0002337
:102A7000002B28D03B6904331846FFF75FFD03465F
:102A8000002B09D1BB68012202FA03F3DA43154B8C
:102A90001B681A40134B1A603B69DB6A01229A409B
:102AA000104B1B681A430F4B1A603B69DA6A1346D6
:102AB0009B0013449B000A4A1A443B6904331046A6
:102AC0001946FFF7DFFC7B69012B01D101F018FFEC
:102AD00001F044FF1837BD4680BD00BFA01A00209A
:102AE000A41A0020801B002080B584B000AF78605D
:102AF00001F016FF7B68002B02D1304B1B6800E011
:102B00007B68FB60FB6804331846FFF717FD03463C
:102B1000002B15D1FB68DA6A294913469B00134440
:102B20009B000B441B68002B0AD1FB68DB6A012267
:102B300002FA03F3DA43234B1B681A40214B1A6055
:102B4000FB689B6A002B04D0FB6818331846FFF71C
:102B5000F5FCFB6804331C481946FFF793FC01F0B1
:102B6000FDFE164B1B68FA689A421AD1174B1B6878
:102B7000002B09D0164B1B68002B02D001F006FF7A
:102B8000FEE701F0BDFE16E00F4B1A68114B1B6803
:102B90009A4203D1094B00221A600CE000F0B6FA09
:102BA00009E00A4B1B68002B05D001F0B9FE00F0CC
:102BB00087FE01F0D3FE1037BD4680BDA01A00206D
:102BC000A41A0020801B0020641B0020841B00200E
:102BD0009C1B0020781B002080B584B000AF78607B
:102BE0000023FB607B68BB607B68002B02D101F097
:102BF000CDFEFEE7BB685A690E4B9A4201D1012314
:102C000000E00023002B0FD0BB689A6A0A4B9A425F
:102C10000AD0BB689B6A002B01D1012300E000238E
:102C2000002B01D00123FB60FB6818461037BD461E
:102C300080BD00BF641B0020381B002080B584B01D
:102C400000AF78607B68FB607B68002B02D101F0ED
:102C50009DFEFEE7FB68002B33D01B4B1B68FA6818
:102C60009A422ED001F05CFEF868FFF7B5FF0346EC
:102C7000012B24D1FB6804331846FFF75FFCFB6887
:102C8000DB6A01229A40114B1B681A430F4B1A60F2
:102C9000FB68DA6A13469B0013449B000C4A1A44F3
:102CA000FB68043310461946FFF7ECFBFB68DA6A51
:102CB000054B1B68DB6A9A4201D301F021FE01F04B
:102CC0004DFE1037BD4680BDA01A0020801B00209D
:102CD000A41A002080B586B000AF786000237B6125
:102CE0007B683B617B68002B02D101F04FFEFEE761
:102CF00001F0A2FE01F04AFEF8603869FFF76CFFB0
:102D00000346012B2FD11C4B1B68002B25D13B699F
:102D1000DA6A1A4B1B68DB6A9A4201D301237B6192
:102D20003B6904331846FFF709FC3B69DB6A012263
:102D30009A40134B1B681A43114B1A603B69DA6ABD
:102D400013469B0013449B000E4A1A443B6904330C
:102D500010461946FFF796FB05E03B6918330A4811
:102D60001946FFF78FFBF86801F01AFE7B691846D9
:102D70001837BD4680BD00BF9C1B0020A01A002054
:102D8000801B0020A41A0020381B002080B586B0CC
:102D900004AF002300930023019300230293002338
:102DA0000393144814495A220023FFF7F1FB78607B
:102DB0007B68012B02D101F09BF978607B68012BC5
:102DC0000ED101F0E3FD0D4B4FF0FF321A600C4BBA
:102DD00001221A600B4B00221A6001F025FD05E06C
:102DE0007B68002B02D101F0D1FDFEE70837BD461C
:102DF00080BD00BF11360000706F0100981B0020DD
:102E0000841B00207C1B002080B500AF01F0BEFDBC
:102E1000024B00221A6001F065FD80BD841B00207A
:102E200080B400AF044B1B685A1C034B1A60BD46AC
:102E30005DF8047B704700BF9C1B002080B582B00A
:102E400000AF00237B60374B1B68002B02D101F0E1
:102E50009DFDFEE701F064FD324B1B685A1E314BAD
:102E60001A60304B1B68002B55D12F4B1B68002B71
:102E700051D02EE02D4BDB68DB683B603B6818339C
:102E80001846FFF75BFB3B6804331846FFF756FB19
:102E90003B68DB6A01229A40254B1B681A43244B8E
:102EA0001A603B68DA6A13469B0013449B00214A70
:102EB0001A443B68043310461946FFF7E3FA3B68AF
:102EC000DA6A1D4B1B68DB6A9A4202D31B4B012254
:102ED0001A60164B1B68002BCCD1194B1B68002BBA
:102EE00011D00CE000F05CF80346002B02D0134B2D
:102EF00001221A60124B1B685A1E114B1A60104BAC
:102F00001B68002BEED10D4B1B68012B03D1012355
:102F10007B6001F0F5FC01F021FD7B681846083765
:102F2000BD4680BD9C1B0020781B0020381B002064
:102F3000801B0020A41A0020A01A00208C1B002057
:102F4000881B002080B483B000AF054B1B687B60FA
:102F50007B6818460C37BD465DF8047B704700BFA0
:102F60007C1B002080B582B000AF01F065FD00231E
:102F70007B60044B1B683B603B6818460837BD46C6
:102F800080BD00BF7C1B002080B400AF034B1B68DA
:102F90001846BD465DF8047B704700BF781B0020D3
:102FA00080B586B000AF00237B614D4B1B68002BC2
:102FB00040F086804B4B1B685A1C4A4B1A60494BA9
:102FC0001B683B613B69002B18D1474B1B681B6892
:102FD000002B02D001F0DAFCFEE7434B1B68FB60DC
:102FE000424B1A68404B1A60404BFA681A60404BDB
:102FF0001B685A1C3E4B1A6000F062FC3D4B1B687C
:103000003A699A424DD3384B1B681B68002B01D19B
:10301000012300E00023002B04D0364B4FF0FF3299
:103020001A603EE0304B1B68DB68DB68BB60BB6846
:103030005B687B603A697B689A4203D22D4B7A6861
:103040001A602EE0BB6804331846FFF777FABB68B6
:103050009B6A002B04D0BB6818331846FFF76EFA42
:10306000BB68DB6A01229A40234B1B681A43224B40
:103070001A60BB68DA6A13469B0013449B001F4A20
:103080001A44BB68043310461946FFF7FBF9BB68C6
:10309000DA6A1B4B1B68DB6A9A4201D301237B610E
:1030A000B1E7174B1B68DA6A144913469B001344B7
:1030B0009B000B441B68012B07D901237B6104E0B3
:1030C000104B1B685A1C0F4B1A600F4B1B68002BD0
:1030D00001D001237B617B6918461837BD4680BD4E
:1030E0009C1B00207C1B0020301B0020341B002078
:1030F000901B0020981B0020801B0020A41A002099
:10310000A01A0020881B00208C1B002080B586B0F0
:1031100000AF354B1B68002B03D0344B01221A60E3
:103120005EE0324B00221A60314B1B681B6B7B61E7
:103130004FF0A5333B617B691A683B699A4211D114
:103140007B6904331A683B699A420BD17B69083367
:103150001A683B699A4205D17B690C331A683B694E
:103160009A4208D0224B1A68214B1B683433104610
:103170001946FEF70BFA1F4B1B687B607B68B3FA9E
:1031800083F3FB70FB78C3F11F03FB601A49FA68F5
:1031900013469B0013449B000B441B68002B02D179
:1031A00001F0F4FBFEE7FA6813469B0013449B0012
:1031B000114A1344BB60BB685B685A68BB685A60BD
:1031C000BB685A68BB6808339A4204D1BB685B6825
:1031D0005A68BB685A60BB685B68DA68044B1A605F
:1031E0001837BD4680BD00BF9C1B00208C1B0020F3
:1031F000A01A0020801B0020A41A002080B584B0F3
:1032000000AF786039607B68002B02D101F0BEFB13
:10321000FEE7194B1B68183378681946FFF756F913
:10322000154B1B6804331846FFF788F90346002B3B
:103230000BD1114B1B68DB6A012202FA03F3DA435C
:103240000E4B1B681A400D4B1A603B68B3F1FF3FF1
:1032500007D1094B1B68043309481946FFF712F9D7
:1032600007E0084B1A683B681344FB60F86800F0FD
:10327000A9FA1037BD4680BDA01A0020801B00208F
:10328000641B00207C1B002080B586B000AFF86076
:10329000B9607A60FB68002B02D101F077FBFEE792
:1032A0001F4B1B68002B02D101F070FBFEE71D4B8A
:1032B0001B68BA6842F000429A611A4B1B681833C7
:1032C000F8681946FFF7DEF8164B1B6804331846FA
:1032D000FFF734F90346002B0BD1124B1B68DB6A56
:1032E000012202FA03F3DA430F4B1B681A400E4B1C
:1032F0001A607B68B3F1FF3F07D10A4B1B680433A8
:103300000A481946FFF7BEF807E0094B1A687B68C0
:1033100013447B61786900F055FA1837BD4680BDCB
:103320009C1B0020A01A0020801B0020641B002092
:103330007C1B002080B586B000AFF860B9607A6071
:10334000FB68002B02D101F021FBFEE7184B1B6844
:103350001833F8681946FFF795F8154B1B680433C6
:103360001846FFF7EBF80346002B0BD1104B1B68F8
:10337000DB6A012202FA03F3DA430E4B1B681A40A0
:103380000C4B1A607B68012B07D1094B1B68043377
:1033900009481946FFF776F807E0084B1A68BB683A
:1033A00013447B61786900F00DFA1837BD4680BD83
:1033B000A01A0020801B0020641B00207C1B002022
:1033C00080B584B000AF78607B68DB68DB68BB6089
:1033D000BB68002B02D101F0D9FAFEE7BB681833B5
:1033E0001846FFF7ABF81D4B1B68002B1CD1BB68C0
:1033F00004331846FFF7A2F8BB68DB6A01229A4043
:10340000174B1B681A43164B1A60BB68DA6A1346DF
:103410009B0013449B00134A1A44BB6804331046B4
:103420001946FFF72FF805E0BB6818330E48194618
:10343000FFF728F8BB68DA6A0C4B1B68DB6A9A4214
:1034400005D90123FB600A4B01221A6001E0002329
:10345000FB60FB6818461037BD4680BD9C1B0020F2
:10346000801B0020A41A0020381B0020A01A002076
:103470008C1B002080B584B000AF78603960244B8D
:103480001B68002B02D101F081FAFEE73B6843F094
:1034900000427B681A607B68DB68BB60BB68002BFE
:1034A00002D101F073FAFEE77868FFF747F8BB68CE
:1034B00004331846FFF742F8BB68DB6A01229A40E2
:1034C000144B1B681A43134B1A60BB68DA6A134625
:1034D0009B0013449B00104A1A44BB6804331046F7
:1034E0001946FEF7CFFFBB68DA6A0C4B1B68DB6A34
:1034F0009A4205D90123FB60094B01221A6001E0C1
:103500000023FB60FB6818461037BD4680BD00BF36
:103510009C1B0020801B0020A41A0020A01A002061
:103520008C1B002080B582B000AF78607B68002BD8
:1035300002D101F02BFAFEE7054B1A687B681A608E
:10354000044B1A687B685A600837BD4680BD00BFCF
:10355000901B00207C1B002080B584B000AF7860F9
:1035600039607B68002B02D101F010FAFEE73B685E
:10357000002B02D101F00AFAFEE701F0D1F91C4B51
:103580001B68BB603B681B68B3F1FF3F02D100239F
:10359000FB6026E07B681A68164B1B689A4207D0CE
:1035A0007B685A68BB689A4202D80123FB6018E026
:1035B0007B685B68BA68D21A3B681B689A420ED275
:1035C0003B681A687B685968BB68CB1A1A443B6829
:1035D0001A607868FFF7A6FF0023FB6001E0012373
:1035E000FB6001F0BBF9FB6818461037BD4680BD93
:1035F0007C1B0020901B002080B400AF034B0122F5
:103600001A60BD465DF8047B704700BF8C1B00202C
:1036100080B582B000AF786000F09AF8034B1B6869
:10362000012B01D901F06CF9F6E700BFA41A0020C4
:1036300080B586B000AFF860B9607A603B60002367
:103640007B6112E0BA687B6913441A78F9687B6978
:103650000B4430331A71BA687B6913441B78002B12
:1036600000D105E07B6901337B617B69092BE9D9D6
:10367000FB68002283F83D207B68042B01D90423DA
:103680007B60FB687A68DA62FB687A681A64FB68B8
:1036900000225A64FB6804331846FEF7E7FEFB6815
:1036A00018331846FEF7E2FEFB68FA681A617B6879
:1036B000C3F10502FB689A61FB68FA685A62FB680D
:1036C00000229A64FB68002283F84C201837BD461C
:1036D00080BD00BF80B582B000AF00237B600CE0EE
:1036E0007A6813469B0013449B00114A1344184602
:1036F000FEF79CFE7B6801337B607B68042BEFD96F
:103700000C48FEF793FE0C48FEF790FE0B48FEF7C0
:103710008DFE0B48FEF78AFE0A48FEF787FE0A4B2D
:10372000044A1A60094B044A1A600837BD4680BD36
:10373000A41A0020081B00201C1B0020381B00209E
:103740004C1B0020641B0020301B0020341B002079
:1037500080B582B000AF28E0FFF762FB164B1B6814
:10376000002B14BF00230123DBB27B60FFF766FB55
:103770007B68002B19D101F0D3F80F4BDB68DB68B5
:103780003B603B6804331846FEF7D8FE0B4B1B68C2
:103790005A1E0A4B1A600A4B1B685A1E084B1A60C5
:1037A00001F0DCF8386800F07BF8054B1B68002B53
:1037B000D2D10837BD4680BD4C1B0020781B0020AD
:1037C000601B002080B582B000AF7860134B1B688F
:1037D0007A685A60124B1B687A689A4209D2114B78
:1037E0001A680E4B1B68043310461946FEF76EFE2E
:1037F00010E00D4B1A68094B1B680433104619463C
:10380000FEF764FE094B1B687A689A4202D2074BA6
:103810007A681A600837BD4680BD00BFA01A002034
:103820007C1B0020341B0020301B0020981B002034
:1038300080B584B000AF03463960FB803B68002B45
:1038400006D1FB889B001846FDF76AFD034600E0A1
:103850003B68BB60BB68002B0ED05020FDF760FDBD
:10386000F860FB68002B03D0FB68BA681A6305E0B8
:10387000B868FDF7E1FD01E00023FB60FB68002B69
:1038800008D0FB681A6BFB889B001046A5211A46DE
:103890000EF0EAF9FB6818461037BD4680BD00BF40
:1038A00080B582B000AF78607B681B6B1846FDF76F
:1038B000C3FD7868FDF7C0FD0837BD4680BD00BF79
:1038C00080B483B000AF0E4B1B681B68002B01D186
:1038D000012300E00023002B04D00A4B4FF0FF32FD
:1038E0001A6008E0064B1B68DB68DB687B607B685E
:1038F0005A68044B1A600C37BD465DF8047B70476C
:10390000301B0020981B002080B483B000AF054B13
:103910001B687B607B6818460C37BD465DF8047BEE
:10392000704700BFA01A002080B483B000AF0B4BDB
:103930001B68002B02D101237B6008E0084B1B6849
:10394000002B02D102237B6001E000237B607B68B7
:1039500018460C37BD465DF8047B7047841B002079
:103960009C1B002080B584B000AF78607B68FB6052
:103970007B68002B62D0FB68DA6A324B1B68DB6A1B
:103980009A425BD2FB689B69002B06DB2D4B1B68C0
:10399000DB6AC3F10502FB689A61FB685969FB6841
:1039A000DA6A13469B0013449B00274A134499424A
:1039B00001D1012300E00023002B3AD0FB6804333F
:1039C0001846FEF7BBFD0346002B15D1FB68DA6AEB
:1039D0001D4913469B0013449B000B441B68002B9E
:1039E0000AD1FB68DB6A012202FA03F3DA43174BC0
:1039F0001B681A40154B1A60124B1B68DA6AFB6889
:103A0000DA62FB68DB6A01229A40104B1B681A439A
:103A10000E4B1A60FB68DA6A13469B0013449B0046
:103A2000094A1A44FB68043310461946FEF72AFD7A
:103A300004E0044B1B68DA6AFB68DA621037BD46A3
:103A400080BD00BFA01A0020A41A0020801B002007
:103A500080B584B000AF78607B68BB600023FB60FA
:103A60007B68002B5ED0324B1B68BA689A4202D04A
:103A700000F08CFFFEE7BB685B6C002B02D100F00E
:103A800085FFFEE7BB685B6C5A1EBB685A64BB6867
:103A9000DA6ABB681B6C9A4244D0BB685B6C002B33
:103AA00040D1BB6804331846FEF748FD0346002B9F
:103AB00015D1BB68DA6A1F4913469B0013449B006B
:103AC0000B441B68002B0AD1BB68DB6A012202FA97
:103AD00003F3DA43184B1B681A40174B1A60BB6894
:103AE0001A6CBB68DA62BB68DB6AC3F10502BB68AB
:103AF0009A61BB68DB6A01229A400F4B1B681A432C
:103B00000D4B1A60BB68DA6A13469B0013449B0096
:103B1000084A1A44BB68043310461946FEF7B2FC43
:103B20000123FB60FB6818461037BD4680BD00BF0F
:103B3000A01A0020A41A0020801B002080B483B0AB
:103B400000AF094B1B689B697B60074B1B68064AEB
:103B50001268D26AC2F105029A617B6818460C3776
:103B6000BD465DF8047B7047A01A002080B400AF0A
:103B7000074B1B68002B04D0054B1B685A6C0132A5
:103B80005A64034B1B681846BD465DF8047B7047BA
:103B9000A01A002080B584B000AF7860396000F0D2
:103BA000BFFE2E4B1B689B6C002B32D12B4B1B682E
:103BB000012283F84C203B68002B2AD0274B1B683E
:103BC00004331846FEF7BAFC0346002B0BD1234BF7
:103BD0001B68DB6A012202FA03F3DA43204B1B68FD
:103BE0001A401F4B1A603B68B3F1FF3F07D11B4BD4
:103BF0001B6804331B481946FEF744FC07E01A4BC8
:103C00001A683B681344FB60F868FFF7DBFD00F0BF
:103C100077FE00F0A3FE00F083FE104B1B689B6C48
:103C2000BB60BB68002B0CD07B68002B04D00B4B17
:103C30001B6800229A6404E0084B1B689A6C013AE6
:103C40009A64064B1B68002283F84C2000F086FE25
:103C5000BB6818461037BD4680BD00BFA01A0020C3
:103C6000801B0020641B00207C1B002080B586B0D8
:103C700000AFF860B9607A603B6000F051FE364BEF
:103C80001B6893F84C30DBB2022B39D0324B1B68E7
:103C9000996CFA68D2430A409A642F4B1B68012240
:103CA00083F84C203B68002B2AD02B4B1B68043335
:103CB0001846FEF743FC0346002B0BD1264B1B682E
:103CC000DB6A012202FA03F3DA43244B1B681A4031
:103CD000224B1A603B68B3F1FF3F07D11E4B1B68B4
:103CE00004331F481946FEF7CDFB07E01D4B1A6849
:103CF0003B6813443B613869FFF764FD00F000FE48
:103D000000F02CFE00F00CFE7B68002B04D0124B60
:103D10001B689A6C7B681A600F4B1B6893F84C30D9
:103D2000DBB2012B02D100237B6108E00A4B1B6848
:103D3000996CBA68D2430A409A6401237B61064BAE
:103D40001B68002283F84C2000F008FE7B691846AF
:103D50001837BD4680BD00BFA01A0020801B002080
:103D6000641B00207C1B002080B588B000AFF86089
:103D7000B9603B601346FB710123FB61FB68002BBC
:103D800002D100F003FEFEE7FB68BB6100F0C8FD56
:103D90003B68002B03D0BB699A6C3B681A60BB6917
:103DA00093F84C30FB75BB69022283F84C20FB79F9
:103DB000042B28D801A252F823F000BF073E0000D0
:103DC000D13D0000DF3D0000EB3D0000F33D000071
:103DD000BB699A6CBB681A43BB699A6413E0BB6900
:103DE0009B6C5A1CBB699A640DE0BB69BA689A6403
:103DF00009E0FB7D022B03D0BB69BA689A6401E03D
:103E00000023FB6100BFFB7D012B2BD1BB69043379
:103E10001846FEF793FBBB69DB6A01229A40154BFB
:103E20001B681A43134B1A60BB69DA6A13469B007E
:103E300013449B00104A1A44BB69043310461946C8
:103E4000FEF720FBBB699B6A002B02D000F09EFDB1
:103E5000FEE7BB69DA6A094B1B68DB6A9A4201D943
:103E600000F04EFD00F07AFDFB6918462037BD4694
:103E700080BD00BF801B0020A41A0020A01A0020D3
:103E800080B588B000AFF860B9603B601346FB7145
:103E90000123FB61FB68002B02D100F077FDFEE7F8
:103EA00000F0CAFDFB68BB6100F070FD78613B6803
:103EB000002B03D0BB699A6C3B681A60BB6993F80E
:103EC0004C30FB74BB69022283F84C20FB79042B35
:103ED00027D801A252F823F0233F0000ED3E000056
:103EE000FB3E0000073F00000F3F0000BB699A6CDB
:103EF000BB681A43BB699A6413E0BB699B6C5A1C8C
:103F0000BB699A640DE0BB69BA689A6409E0FB7CFE
:103F1000022B03D0BB69BA689A6401E00023FB61FD
:103F200000BFFB7C012B3AD1BB699B6A002B02D0FE
:103F300000F02CFDFEE71E4B1B68002B1CD1BB695B
:103F400004331846FEF7FAFABB69DB6A01229A408D
:103F5000184B1B681A43174B1A60BB69DA6A134681
:103F60009B0013449B00144A1A44BB690433104657
:103F70001946FEF787FA05E0BB6918330F48194662
:103F8000FEF780FABB69DA6A0D4B1B68DB6A9A425E
:103F900005D9BB6A002B02D0BB6A01221A6078697E
:103FA00000F0FEFCFB6918462037BD4680BD00BF0F
:103FB0009C1B0020801B0020A41A0020381B00201E
:103FC000A01A002080B586B000AF786039607B68A9
:103FD000002B02D100F0DAFCFEE700F02DFD7B683B
:103FE0007B6100F0D3FC38617B6993F84C30FB7344
:103FF0007B69022283F84C207B699B6C5A1C7B698D
:104000009A64FB7B012B3AD17B699B6A002B02D01F
:1040100000F0BCFCFEE71D4B1B68002B1CD17B692C
:1040200004331846FEF78AFA7B69DB6A01229A405C
:10403000174B1B681A43164B1A607B69DA6A1346E2
:104040009B0013449B00134A1A447B6904331046B7
:104050001946FEF717FA05E07B6918330E48194632
:10406000FEF710FA7B69DA6A0C4B1B68DB6A9A422E
:1040700005D93B68002B02D03B6801221A603869E1
:1040800000F08EFC1837BD4680BD00BF9C1B002091
:10409000801B0020A41A0020381B0020A01A00203A
:1040A00080B584B000AF78607B68BB60BB68002BD4
:1040B00002D10E4B1B6800E0BB68BB6000F030FC17
:1040C000BB6893F84C30DBB2022B06D1BB680022F0
:1040D00083F84C200123FB6001E00023FB6000F02B
:1040E0003DFCFB6818461037BD4680BDA01A002075
:1040F00080B586B004AF00237B6000F0AFFA0F4BB1
:104100001B68002B0ED00223009300230193002391
:104110000293002303930A480A49B4220023FEF7BE
:1041200037FA78607B68002B02D100F02FFCFEE7A5
:104130007B6818460837BD4680BD00BFD01B0020F5
:10414000E1420000786F010080B586B000AFF860F2
:10415000B9607A603B60BB68002B02D100237B61B1
:104160001CE02820FDF7DCF878617B69002B15D076
:1041700000F074FA7B69FA681A607B69BA689A6120
:104180007B697A68DA617B693A681A627B693A6AA4
:104190005A627B6904331846FEF768F9BB68002B46
:1041A00002D100F0F3FBFEE77B6918461837BD46E5
:1041B00080BD00BF80B588B000AFF860B9607A609C
:1041C0003B600023FB61FB68002B02D100F0DEFBAB
:1041D000FEE71D4B1B68002B30D0BB683B617B6842
:1041E0007B61FB68BB61BB68052B1CDCFFF79CFB9C
:1041F0000346022B0BD1144B1A6807F1100310462B
:104200001946BA6A0023FDF7F5FBF86116E00E4B7C
:104210001A6807F110031046194600220023FDF723
:10422000E9FBF8610AE0084B1A6807F11003104631
:1042300019463A680023FDF7A3FCF861FB691846AC
:104240002037BD4680BD00BFD01B002080B584B0A4
:1042500000AF78607B68FB607B68002B02D100F0C8
:1042600095FBFEE7FB681B6818461037BD4680BD0E
:1042700080B586B002AF78603960184B1B68DB6888
:10428000DB68FB60FB6804331846FEF757F9FB68F0
:10429000DB69012B1BD1FB689A697B681344F868C2
:1042A00019463A687B6800F0B7F80346012B0ED137
:1042B00000230093F86800217A680023FFF77AFF53
:1042C000B860BB68002B02D100F060FBFEE7FB6822
:1042D0005B6AF86898471037BD4680BDC81B002050
:1042E00080B584B000AF786007F10803184600F08D
:1042F0004FF8F860BB68F868194600F003F800F062
:10430000CDF8F1E780B584B000AF78603960FEF792
:1043100087FD07F10803184600F05EF8F860BB68F7
:10432000002B2BD13B68002B0AD17A68FB689A429C
:1043300006D8FEF783FD7868F968FFF799FF1FE05C
:104340003B68002B08D0104B1B681B68002B14BF68
:1043500000230123DBB23B600C4B1A687968FB68D1
:10436000CB1A104619463A68FEF732F8FEF766FD9A
:104370000346002B04D100F0C3FA01E0FEF75EFD16
:104380001037BD4680BD00BFCC1B0020D01B0020D5
:1043900080B485B000AF78600E4B1B681B68002BA3
:1043A00014BF00230123DBB21A467B681A607B68C6
:1043B0001B68002B05D1074B1B68DB681B68FB6083
:1043C00001E00023FB60FB6818461437BD465DF82A
:1043D000047B7047C81B002080B584B000AF7860B4
:1043E000FEF7B0FDF8600B4B1B68FA689A4205D2E5
:1043F00000F0DCF87B6801221A6002E07B68002292
:104400001A60044BFA681A60FB6818461037BD46FC
:1044100080BD00BFD41B002080B586B000AFF8601F
:10442000B9607A603B6000237B61FB68BA685A60C0
:10443000FB68FA681A61BA687B689A4212D87A688F
:104440003B68D21AFB689B699A4202D301237B61C5
:104450001BE0104B1A68FB68043310461946FEF740
:1044600035F812E07A683B689A4206D2BA683B682F
:104470009A4202D301237B6107E0074B1A68FB686D
:10448000043310461946FEF721F87B6918461837A1
:10449000BD4680BDCC1B0020C81B002080B58AB063
:1044A00002AF70E0BB68002B6DDB3B69FB61FB6911
:1044B0005B69002B04D0FB6904331846FEF73EF815
:1044C0003B1D1846FFF788FFB861BB68092B59D818
:1044D00001A252F823F000BF014500000145000091
:1044E0000145000085450000534500007D45000062
:1044F00001450000014500008545000053450000CE
:10450000FA68FB699B691A44FB68F8691146BA6945
:10451000FFF782FF0346012B1AD1FB695B6AF8693A
:104520009847FB69DB69012B12D1FA68FB699B692B
:10453000134400220092F86900211A460023FFF775
:1045400039FE78617B69002B02D100F01FFAFEE78B
:1045500019E0FA68FB699A61FB699B69002B02D13B
:1045600000F014FAFEE7FB699A69BB691344F86925
:104570001946BA69BB69FFF74FFF04E0F869FCF719
:104580005BFF00E000BF084B1A6807F10803104604
:10459000194600220023FDF7BBFB0346002B81D107
:1045A0002037BD4680BD00BFD01B002080B588B03D
:1045B00002AF3DE0274B1B68DB681B687B61254B26
:1045C0001B68DB68DB683B613B6904331846FDF719
:1045D000B5FF3B695B6A386998473B69DB69012B2A
:1045E00026D13B699A697B691344FB60FA687B6951
:1045F0009A420ED93B69FA685A603B693A691A6176
:10460000144B1A683B69043310461946FDF75EFFE8
:104610000EE000230093386900217A690023FFF738
:10462000C9FDB860BB68002B02D100F0AFF9FEE70E
:10463000084B1B681B68002BBCD1064B1B687B60BA
:10464000054B1A68034B1A60034B7A681A601837D7
:10465000BD4680BDC81B0020CC1B002080B500AF2C
:1046600000F05EF9154B1B68002B24D11448FDF7B0
:10467000DDFE1448FDF7DAFE134B114A1A60134BA6
:10468000104A1A600A200C210022FDF7A7F8024602
:104690000A4B1A60094B1B68002B02D100F076F917
:1046A000FEE7064B1B68002B05D0044B1B68184621
:1046B0000749FDF743FE00F051F980BDD01B0020F3
:1046C000A01B0020B41B0020C81B0020CC1B002016
:1046D000806F010080B584B000AF78607B68FB60BC
:1046E0007B68002B02D100F051F9FEE700F018F9C9
:1046F000FB685B69002B0CBF00230123DBB2BB60AE
:1047000000F02CF9BB6818461037BD4680BD00BFCD
:1047100080B584B000AF78607B68FB607B68002B5D
:1047200002D100F033F9FEE700F0FAF8FB681B6AEB
:10473000BB6000F013F9BB6818461037BD4680BD5A
:1047400080B584B000AF786039607B68FB607B68BF
:10475000002B02D100F01AF9FEE700F0E1F8FB6847
:104760003A681A6200F0FAF81037BD4680BD00BF03
:1047700080B485B000AFF860B9607A60FB68043B34
:10478000FB60FB684FF080721A60FB68043BFB60C3
:10479000BA68FB681A60FB68043BFB60094AFB6867
:1047A0001A60FB68143BFB607A68FB681A60FB6860
:1047B000203BFB60FB6818461437BD465DF8047B60
:1047C000704700BFC947000080B500AF054B1B68AC
:1047D000B3F1FF3F02D000F0D9F8FEE700F0D6F8C1
:1047E000FEE700BF6C97FF1F074B19680868B0E829
:1047F000F00F80F30988BFF36F8F4FF0000080F354
:1048000011884EF00D0E7047A01A0020A0480068D5
:10481000006880F3088862B661B6BFF34F8FBFF3BC
:104820006F8F00DF00BF00BF80B584B000AF284BA2
:10483000FB60FB681B78DBB2BB60FB68FF221A7071
:10484000FB681B78DBB2FB71FB79DBB203F0500332
:10485000DAB2204B1A70204B07221A6009E01E4B77
:104860001B685A1E1C4B1A60FB79DBB25B00DBB283
:10487000FB71FB79DBB2DBB25BB2002BEFDB164BDB
:104880001B681A02144B1A60134B1B6803F4E06296
:10489000114B1A60BB68DAB2FB681A700F4B0F4AF3
:1048A000126842F470021A600C4B0C4A126842F013
:1048B00070421A6000F0AEF8094B00221A60FFF750
:1048C000A5FFFFF781FF002318461037BD4680BDC6
:1048D00000E400E0D81B0020DC1B002020ED00E0FD
:1048E0006C97FF1F80B500AF044B1B68B3F57A7F50
:1048F00002D000F04BF8FEE780BD00BF6C97FF1FB1
:1049000080B400AF054B4FF080521A60BFF34F8F59
:10491000BFF36F8FBD465DF8047B704704ED00E088
:1049200080B500AF00F032F80A4B1B685A1C094BE7
:104930001A60BFF34F8FBFF36F8F064B1B68012BBD
:1049400007D1054B1B68DBB2002B02D000F01EF82C
:10495000FEE780BD6C97FF1F04ED00E080B500AF5F
:10496000094B1B68002B02D100F010F8FEE7064B44
:104970001B685A1E044B1A60034B1B68002B02D1A4
:10498000002000F00DF880BD6C97FF1FEFF3118041
:104990004FF0500181F3118870470023184600BF83
:1049A00080F31188704700BFEFF30980BFF36F8F6A
:1049B0000D4B1A6820E9F00F10602DE908404FF008
:1049C000500080F31188FEF7A1FB4FF0000080F348
:1049D0001188BDE8084019680868B0E8F00F80F356
:1049E0000988BFF36F8F7047A01A002080B500AF11
:1049F000FFF7CCFFFEF7D4FA0346002B03D0044B9D
:104A00004FF080521A600020FFF7CAFF80BD00BF40
:104A100004ED00E080B400AF044B054A1A60054B7A
:104A200007221A60BD465DF8047B704714E000E081
:104A3000FF76010010E000E080B582B000AFEFF338
:104A400005837B607B680F2B0CD90D4A7B68134470
:104A50001B78FB700B4B1B78FA789A4202D2FFF757
:104A600095FFFEE7084B1B6803F4E062074B1B68E9
:104A70009A4202D9FFF78AFFFEE70837BD4680BD9C
:104A8000F0E300E0D81B00200CED00E0DC1B002070
:104A900008ED00E080B584B000AF78606348012184
:104AA00003F0DEFA624B624A126842F480521A60E6
:104AB000604B80221A700023FB8106E05E4BFA896E
:104AC0001A80FB8908339BB2FB81B7F90E30B3F52E
:104AD000006FF3DB594B1B6803F48003002B18D0E5
:104AE000574B1A6848F6A273134048F6A2729342D5
:104AF0000FD1544B1A6840F23F439A4209D1524BAE
:104B00001B68012B05D1514B1A6840F201139A42E0
:104B100001D0012300E00023002B17D0474B474A68
:104B2000126842F480021A60474B01221A60454B1A
:104B300040F23F421A60424B48F6A3721A60404B63
:104B4000434A1A60414B40F201121A60374B1B680E
:104B50001A6800213F4A0A431A60344B1B6800223E
:104B600042F002021A7100225A71304B1B68002277
:104B700042F001029A71002242F00102DA712B4BDD
:104B80001B68002242F002021A7200225A720022AE
:104B90009A720022DA72254B1B682F4ADA60234B87
:104BA0001A681369002343F0804343F44C231361D4
:104BB0001E4B1B6800221A7500225A751B4B1B687E
:104BC0004FF4807291B2DA8A00220A43DA82174BDC
:104BD0001B6800221A7600225A7600229A7600225A
:104BE000DA76124B1B684FF4807291B2DA8B002296
:104BF0000A43DA830D4B1B689A8B002242F00602AF
:104C00009A830A48302100F04DF903F019FE03465B
:104C10001A46124B1A70054800F098F903481049DB
:104C200000F060F91037BD4680BD00BFEC1B0020CE
:104C30002C80044021C00C4000C00C403C8004404B
:104C400000600340046003400C60034010600340B8
:104C5000A28F01000092FF1F00FEFFFFE81B002053
:104C6000154D000080B483B000AF786039603B68B8
:104C7000022B08D10A4B0A4A1278D2B222F0400223
:104C8000D2B21A7007E0064B054A1278D2B242F04F
:104C90004002D2B21A700C37BD465DF8047B7047F3
:104CA00021C00C4080B584B000AF78607B681846A6
:104CB000002103F031FD0346FB60FB68002B21D08F
:104CC00072B6124B1B68002B04D1104BFA681A60A5
:104CD00062B617E00E4B1B68002B04D10C4BFA6830
:104CE0001A6062B60EE0094B1B68BB60084B1A687D
:104CF000064B1A60064BFA681A6062B6B86803F091
:104D00009DFCFFE71037BD4680BD00BFE01B0020C3
:104D1000E41B002080B586B000AF294B1B681B68E0
:104D2000BB60274800F002F94FF48072254B1A440B
:104D3000BB689A4204D9244BFB60244B3B6103E0DF
:104D4000204BFB60204B3B61214B1B687B607B68E9
:104D5000002B1FD07B6804337B61FA68931CFB60D7
:104D60007B69991C79611B881BB203F5FF437F3374
:104D70001B119BB21380FA683B699A42EDD37868A5
:104D800003F05CFC134B1A68114B1A60114B0022A4
:104D90001A6009E0FB689A1CFA6040F2FF721A8000
:104DA000FA683B699A42F5D30B4B1B78002B01D074
:104DB00000F03EF8094B10221A601837BD4680BD3E
:104DC000EC1B00200092FF1F0093FF1F0094FF1FA9
:104DD000E01B0020E41B0020E81B0020C4F00F4073
:104DE00080B582B000AF786039607B68012B0DD14F
:104DF0003A684FF6FF739A4208D10648002100F046
:104E00002FF804480449054A04F020F90837BD4644
:104E100080BD00BFEC1B00208D4E00006097FF1F7F
:104E200080B500AF01204FF6FF71FFF7D9FF80BDBD
:104E300080B400AF034B4FF080421A60BD465DF86E
:104E4000047B704708E200E080B483B000AF786074
:104E50007B6818460C37BD465DF8047B704700BF81
:104E600080B582B000AF78600B46FB707B68184657
:104E7000FFF7EAFFFB78002B03D07868002103F0EE
:104E8000EFF87B6818460837BD4680BD80B582B014
:104E900000AF7860786803F0ADF97B681846083792
:104EA000BD4680BD80B485B000AF78600B46FB7016
:104EB0007B681B7903F1804303F50433FB60FB68D7
:104EC00000221A70FB7803F03F03DBB263F07F032C
:104ED000DBB2DAB2FB681A701437BD465DF8047BAA
:104EE000704700BF80B483B000AF786039607B68E2
:104EF0001B7903F110020C4B396843F822107B68D0
:104F00001B795B119B0003F1604303F561437A68F1
:104F1000127902F01F02012101FA02F21A600C3725
:104F2000BD465DF8047B70470090FF1F80B483B0DE
:104F300000AF7860044B7A6812791A700C37BD465E
:104F40005DF8047B704700BF1F80004080B483B0D1
:104F500000AF7860044B7A6812791A700C37BD463E
:104F60005DF8047B704700BF1B80004080B493B0A5
:104F700000AFF860B9607A607B68002B00D183E0F5
:104F8000BA6813465B0013449B001833FA68134455
:104F9000FB63FB6B5B68002B00D175E0FB6B9B68D0
:104FA000002B08D1FB6B1A68FB6B5B68DB011A44B2
:104FB000FB6B1A6068E0FB6B1B683B64FB6B5B6818
:104FC000BB6300237B6459E03B6C1B0E7B63314B5E
:104FD0007A6B33F812301BB23B637B6B5A1C2D4B40
:104FE00033F812301BB2FB623B6C1B0A9BB2BB62F4
:104FF000FB6ABA6A02FB03F3FB62BB6AC3F57F4339
:10500000FF333A6B02FB03F33B63BB68002B13D106
:105010003A6BFB6A1A44FB6B9B687A623B627B6A61
:105020003A6A53FB02F3FB61FB699AB279687B6CC5
:105030005B000B449A801AE03A6BFB6A1A44FB6BE4
:105040009B68BA617B61BB697A6953FB02F33B6180
:105050003B691A4679687B6C5B000B449B881BB2EA
:1050600013449AB279687B6C5B000B449A803A6C6B
:10507000BB6B13443B647B6C01337B647B6C7F2B89
:10508000A2D9FB6B3A6C1A604C37BD465DF8047BC5
:10509000704700BF2070010080B584B000AF786019
:1050A00003F046FA0346BB60BB68002B1CD000230C
:1050B000FB6008E0FB6878681946BA68FFF756FF9E
:1050C000FB680133FB607B6893F8D8301A46FB68B5
:1050D0009A42EFDC7B681846B968002203F0E8FAD0
:1050E000B86803F0ABFA00BF1037BD4680BD00BF03
:1050F00080B400AF034B0F221A70BD465DF8047BED
:10510000704700BFC020074080B483B000AF786014
:105110003960184B1B7843F00203DBB2164ADB0000
:1051200013447A685A60134B1B7843F00203DBB2D6
:105130001A46124B1B78002B01D0C82300E08823AD
:105140003968090419430C4B43F832100B4B1B7898
:1051500083F00103DAB2094B1A70064B1B7883F017
:105160000103DAB2034B1A700C37BD465DF8047BBD
:10517000704700BFCE1C00200080FF1FCF1C002006
:1051800080B58CB000AF0023FB620023BB62AA4B4A
:105190001B8840F2816293421BDCB3F5D06F80F232
:1051A000C081B3F5817F00F07E81B3F5817F06DC9D
:1051B000802B00F02F81822B00F03781E7E140F255
:1051C0000232934200F08E81B3F5A06F00F0E281CD
:1051D000DDE142F22102934200F0248242F22102F8
:1051E000934207DCB3F5086F00F00A81B3F5106F46
:1051F0000BD0CCE142F22122934200F0BE8142F278
:105200002132934200F0C881C1E18B4B5B88DAB256
:105210008A4B1A708A4BFB618A4BBB6104237B610A
:1052200013E0894B7A6953F8323003F08003002B86
:1052300008D0854A7B69DB0013445B68083B18464D
:1052400000F0B6FE7B6901337B617B69132BE8DDDF
:1052500000237B615CE07D4B7A6953F822303B612F
:1052600007E03B695B68FB60386900F0A1FEFB6802
:105270003B613B69002BF4D1744B7A69002143F800
:105280002210734B7A69002143F82210714B7A691E
:1052900053F822303B6107E03B695B68FB6038698B
:1052A00000F086FEFB683B613B69002BF4D1694B43
:1052B0007A69002143F82210674B7A69002143F88C
:1052C0002210664B7A69002123F81210644A7B6928
:1052D00013441B78023B032B16D801A252F823F08B
:1052E000F1520000FD520000F1520000FD5200009A
:1052F0005B4A7B69134400221A7006E0584A7B69B6
:10530000134401221A7000E000BF7B6901337B6106
:105310007B69032B9FDD534B00221A7001237B61B5
:105320006AE0BB695A1CBA611B78FB72FB69FA7AA6
:105330001A70FB690433FB61FB7A03F00803002B4E
:1053400047D000F0FDFD78607B68002B0ED07B69B4
:105350009B007A6808323C49DB000B445A607B6949
:105360009A00394B404943F832100BE07B699A00B0
:10537000354B002143F832103A4B1B780133DAB237
:10538000384B1A7000F0DCFD78607B68002B12D07F
:105390007B699B0043F001037A6808322A49DB00ED
:1053A0000B445A607B699B0043F00102264B2F4956
:1053B00043F832100DE07B699B0043F00102224B61
:1053C000002143F83210274B1B780133DAB2254B0A
:1053D0001A707B699B0043F002021B4B002143F8CB
:1053E00032107B699B0043F00302174B002143F806
:1053F00032107B6901337B617B69042B91DDCCE04A
:105400000E4B1B78DAB21A4B1A700123BB62184B91
:10541000FB62C2E0164B00221A70154B00225A7034
:105420000223BB62124BFB62B7E0034B9B88042B49
:1054300020D9FFF75DFEF6E0401C0020D11C0020C3
:10544000C42007407C7401000080FF1FF41B002073
:10545000041C0020141C0020241C0020341C0020EC
:105460003C1C0020D01C002088004000C8004000E8
:10547000D41C00206D4B00221A706C4B00225A7015
:105480006B4B9B889B001A466A4B13441B7803F0B6
:105490000203002B02D0654B01221A70634BFB62A2
:1054A0000223BB6279E0624B9B8803F07F037B6140
:1054B0007B69042B03DC5E4B5B88002B02D0FFF77B
:1054C00017FEB0E07B699B001A465A4B13447A6979
:1054D00092001146574A0A44127822F00202D2B2D0
:1054E0001A705AE0524B9B8803F07F037B617B6903
:1054F000042B03DC4E4B5B88002B02D0FFF7F8FD3A
:1055000091E07B699B001A464A4B13447A699200EA
:105510001146484A0A44127842F00202D2B21A7086
:105520003BE0454B7B627B6A5B68002B03D100BF8D
:10553000FFF7DEFD77E03E4B5A887B6A1B889A4274
:1055400017D13B4B9A887B6A5B889A4211D17B6A60
:105550005B68FB62364B5B881B0A9BB2032B04D152
:105560007B6A5B681B78BB6217E07B6A1B89BB6246
:1055700013E07B6A0C337B62D5E7304B1A68304B03
:105580001A602B4B5B88DAB22E4B1A7005E0FFF7DE
:10559000AFFD48E000BF00E000BF254BDB881A46A6
:1055A000BB6A9A4202D2224BDB88BB62BB6A3B6277
:1055B0003B6A402B01D940233B62F86A396AFFF706
:1055C000A3FDFA6A3B6A1344FB62BA6A3B6AD31AC8
:1055D000BB62BB6A002B03D13B6A3F2B00D822E0A1
:1055E000BB6A3B623B6A402B01D940233B62F86AAD
:1055F000396AFFF789FDFA6A3B6A1344FB62BA6AAB
:105600003B6AD31ABB62BB6A002B03D13B6A3F2BB8
:1056100000D808E00C4BFA6A1A60BB6A9AB20B4BCE
:105620001A8000E000BF3037BD4680BDD41C00208A
:10563000401C0020C020074028740100801D00206D
:10564000E41C0020E81C0020C81C0020CC1C00200A
:1056500080B58AB000AF78607B689B08DA005B4B4E
:1056600013447B617B691B689B0803F00F033B615C
:105670007B695B683B623B69013B0C2B00F29F80BE
:1056800001A252F823F000BFF7560000F7560000C1
:10569000BF570000BF570000BF570000BF570000B2
:1056A000BF570000BF57000047570000BF5700001A
:1056B000BF570000BF570000BD5600003B6A1A6884
:1056C000434B1A603B6A5A68414B5A607B69414AB6
:1056D0001A60414B00221A603C4B00221A613B4B7E
:1056E00000229A613D4B01221A70FFF749FD3C4BA5
:1056F00001221A7063E0364B1A8842F221039A4263
:105700001DD1384BBB610023FB610AE0BB695A1C09
:10571000BA613A6A511C396212781A70FB69013316
:10572000FB61FB69062BF1DD2E4B1B68862B02D13A
:105730002D4B0F221A7000200021FFF7E5FC7B693A
:10574000244A1A603BE0244B1B68FB60FB68002B7B
:1057500023D0264B1B887B627B6A402B01D94023D8
:105760007B62F868796AFFF7CFFCFA687B6A1344BA
:10577000FB601E4B1A887B6A9BB2D31A9AB21B4BF2
:105780001A801A4B1B88002B02D17B6A402B01D157
:10579000FB6800E00023104A13600D4B5B78052B7B
:1057A0000CD10B4B1B78002B08D1094B00225A70EF
:1057B0000F4B074A5288D2B21A70FFE700BF084B5E
:1057C00001221A702837BD4680BD00BF0080FF1F30
:1057D000401C0020C8004000C81C0020CF1C002036
:1057E00094200740DC1C0020D21C0020CC1C002090
:1057F0009820074080B485B000AF78607B68013B9B
:105800007B607B68032B01D900231CE072B6114B2F
:105810007A6853F82230FB60FB68002B11D0FB68DC
:1058200059680C4B7A6843F822100B4B7A6833F8AE
:105830001220FB681B88D31A99B2074B7A6823F8A9
:10584000121062B6FB6818461437BD465DF8047B3B
:10585000704700BFF41B0020341C002080B485B0CA
:1058600000AF78600023FB6072B607E07B681B889E
:10587000FA681344FB607B685B687B607B68002B85
:10588000F4D162B6FB6818461437BD465DF8047B58
:10589000704700BF80B582B000AF78607B68013B85
:1058A0007B607B68032B01D9002307E0054B7A68F6
:1058B00053F822301846FFF7D1FF03461846083741
:1058C000BD4680BD141C002080B485B000AF786058
:1058D0000023BB607B68013B7B607B68032B01D9A5
:1058E000002311E072B60B4B7A6853F82230FB604C
:1058F00005E0BB680133BB60FB685B68FB60FB686D
:10590000002BF6D162B6BB6818461437BD465DF869
:10591000047B7047141C002080B584B000AF786011
:105920002F4BBB6072B60123FB604AE0BB685A1C78
:10593000BA601B7803F00803002B3FD0FB689A0085
:10594000284B53F83230002B15D1FB689B007A6846
:1059500008322449DB000B445A60FB689A00214B53
:10596000214943F83210214B1B78013BDAB21F4B1F
:105970001A7062B630E0FB689B0043F00102194BDD
:1059800053F83230002B19D1FB689B0043F0010320
:105990007A6808321349DB000B445A60FB689B00AD
:1059A00043F001020F4B124943F832100F4B1B78A2
:1059B000013BDAB20D4B1A7062B60DE0FB680133A1
:1059C000FB60FB68042BB1D962B6084B00221A7049
:1059D000786800F0EDFA00BF1037BD4680BD00BF0B
:1059E0007C7401000080FF1F88004000D01C002054
:1059F000C800400080B485B000AF786039607B6833
:105A00009B0043F00203DA00324B1344FB607B68D7
:105A1000013B7B607B68032B00D956E072B62E4AAF
:105A20007B6813441B78032B1CD801A252F823F087
:105A3000415A0000475A0000535A0000595A0000CA
:105A40000323FB7227E0FB680833FB600223FB7231
:105A500021E00523FB721EE0FB680833FB60042392
:105A6000FB7218E01D4B7A6853F82230002B05D1E9
:105A70001A4B7A68396843F8221005E0184B7A68A7
:105A800053F822303A685A60154B7A68396843F8FF
:105A9000221062B619E0104A7B681344FA7A1A7031
:105AA0003B6803F10802FB685A60FB6803F00803D7
:105AB000002B01D0C82300E088233A681288120422
:105AC00013431A46FB681A6062B61437BD465DF888
:105AD000047B70470080FF1F3C1C0020141C00202A
